:020000040800F2
:10000000880A00209D0100085F2A0008B72900081F
:100010005D2A0008B5130008AD320008000000009A
:10002000000000000000000000000000832A00081B
:100030007514000800000000812A0008852A0008C5
:10004000B7010008B7010008B7010008B7010008B0
:10005000B7010008B7010008B7010008B7010008A0
:10006000B7010008B7010008B7010008B701000890
:10007000B7010008B7010008B7010008B701000880
:10008000B9130008B7010008B7010008B70100085C
:10009000B7010008B7010008B7010008B701000860
:1000A000B7010008B7010008B7010008B701000850
:1000B000852B0008B7010008B7010008B701000848
:1000C000B7010008B7010008B7010008B701000830
:1000D000B7010008A1320008B7010008B701000805
:1000E000B7010008B7010008B7010008B701000810
:1000F000B7010008B7010008B7010008B701000800
:10010000B7010008B7010008B7010008B7010008EF
:10011000B7010008B7010008B7010008B7010008DF
:10012000B7010008B7010008C5130008B7010008AF
:10013000B7010008B7010008B7010008B7010008BF
:10014000B7010008B7010008B7010008B7010008AF
:10015000B7010008B7010008B7010008B70100089F
:10016000B7010008B7010008B7010008B70100088F
:10017000B7010008B7010008B7010008000000003F
:10018000B7010008B7010008DFF80CD000F024FF29
:1001900000480047D1530008880A002006488047DD
:1001A00006480047FEE7FEE7FEE7FEE7FEE7FEE75C
:1001B000FEE7FEE7FEE7FEE7312B000889010008B5
:1001C0002DE9F05F0546002092469B46884606468C
:1001D000814640241BE0284641464746224600F01F
:1001E00032FD53465A46C01A914110D31146184663
:1001F000224600F019FD2D1A67EB01084F462246F2
:100200000120002100F010FD17EB00094E41201ED7
:10021000A4F10104DFDC484631462A464346BDE8E6
:10022000F09FD2B201E000F8012B491EFBD27047CB
:100230000022F6E710B513460A4604461946FFF7B2
:10024000F0FF204610BD30B505462A460B4612F891
:10025000010B13F8014B08B1A042F8D01CB10028E3
:1002600002D06D1CF1E7284630BD421C10F8011B7E
:100270000029FBD1801A70470FB400B58DB010A9CA
:1002800009900B9000914FF0FF300A9000200C90E5
:1002900005480690054807906A4609A80F9900F09E
:1002A00009FD0DB05DF814FBD10C0008EF0C00083F
:1002B0002DE9FF5F1D464FF0FF3BD5E90146914612
:1002C0005F464FF00008A9697F1C01988847296A9A
:1002D000824688470028F6D1BAF1FF3F0CD024F4BB
:1002E000C064002E19DD600614D5BAF12B0F09D0B9
:1002F000BAF12D0F0ED103E0584604B0BDE8F09FCF
:1003000044F48064A9697F1C01988847761E824660
:10031000002E02DDBAF1300F03D0B9F1000F26D064
:1003200032E0A969761E44F400747F1C0198884766
:100330008246002E05DDBAF1780F06D0BAF1580FCB
:1003400003D0B9F1000F10D01EE0B9F1000F02D0B8
:10035000B9F1100F18D1A969761E24F400747F1C1E
:10036000019888478246102002E0082000E00A2019
:10037000814609E008FB0908A969761E44F4007467
:100380007F1C019888478246002E05DD494650466D
:1003900000F07BFC0028EDDAE96901988847A005A8
:1003A00002D46FF00100A8E7E00725D1600613D55D
:1003B000600502D5C8F1000000E0404629680A1D2A
:1003C0002A600968220501D5087015E0220701D5C9
:1003D000088011E008600FE02868011D29600068AE
:1003E000210502D580F8008006E0210702D5A0F89B
:1003F000008001E0C0F8008038467EE72DE9FF5F0D
:10040000D2E901A74FF00008916999461446DDF83A
:1004100038B0464601988847054659EA0B0005D092
:1004200009E0A169761C019888470546216A28469B
:1004300088470028F5D1681C03D05FEACA7005D050
:1004400015E04FF0FF3004B0BDE8F09F2068011DBB
:100450002160D0F800800AE05FEACA7001D108F894
:10046000015BA169761C7F1E019888470546002F15
:100470001ADD681C18D0B9F1000F0DD0E81705EB94
:10048000D060421120F01F0059F822102A1A0120D2
:1004900090400142E0D107E0BBF1000FDCD1216ABE
:1004A000284688470028D7D0E16901988847BBF1E2
:1004B000000F07D1002E05DD5FEACA7002D10021CE
:1004C00088F80010A068B84203DDBBF1000F03D02C
:1004D00017B16FF00100B6E73046B4E72DE9FF4FE2
:1004E000087883B09946FF2805D0491C2D2804D0F0
:1004F0000024002008E000200BE00124F9E700EBD5
:10050000800003EB4000491C0B78FF2BF7D104B1AE
:10051000404200230293147819461D462D2C01D029
:100520002B2C04D1521C2D2C13D000240294AA464B
:100530001478FF2C0FD00A25A3FB057801FB058159
:100540004FF0000C03FB0C11521CE3194AEB0101A4
:10055000EEE70124EAE7814453EA010002D019F5ED
:10056000C87F06DA03980021C0E9001107B0BDE892
:10057000F08F0025AE4E2F46DFF8B882184600F007
:10058000EFFCCDE90001B9F1000002DAC9F1000485
:1005900000E004460023A74A1AEB030B42EB045A7F
:1005A00012E0E00707D02A4633463846414600F0BD
:1005B000ECF9074688462A4633461046194600F0AD
:1005C000E4F905460E466410002CEAD1DDE900018D
:1005D000B9F1000F5A46534606DA00F048FA3A4697
:1005E000434600F044FA05E000F0CFF93A464346AE
:1005F00000F0CBF9029A0AB181F00041039AC2E9F6
:100600000001B3E72DE9FF4F1F468DB0D7E9014642
:100610004FF0FF382E2045464FF000090B90B96986
:100620006D1C0E988847396A824688470028F6D1A3
:10063000BAF1FF3F0AD024F4D064002E11DDBAF1E4
:100640002B0F08D0BAF12D0F0BD102E0404611B0AC
:100650008DE744F48064B9696D1C0E988847824622
:10066000761E6946600501D52D2000E02B208DF80F
:10067000000001F1010B0DF1200809E0B9696D1CC2
:100680000E98884782460F9844F40074761E0560E1
:10069000002E02DDBAF1300FF0D00B998A453ED121
:1006A00044F0800406E00F99681CA9F1010944F4A4
:1006B00000740860B9696D1C761E0E9888478246E2
:1006C0003028F0D02BE00B998A4505D1200603D4C1
:1006D00044F08004761E18E0504604F069F808B330
:1006E0000DF11301761E44F400748B4508D2AAF173
:1006F00030000BF8010B200607D5A9F1010003E03B
:10070000200602D409F101008146A00502D50F9907
:10071000681C0860B9696D1C0E9888478246002ED7
:10072000D1DC53E0002E51DDBAF1650F02D0BAF1F1
:10073000450F4BD1A00549D5B9696D1C24F440740F
:10074000761E0E9888478246002E0CDD2B2804D09A
:10075000BAF12D0F07D144F48074B9696D1C0E985D
:1007600088478246761EE00501D52D2100E02B2129
:1007700008F8011BCDF82C8021E00DF12901761E2F
:1007800044F4007488450CD2AAF1300010F0FF0048
:1007900088F8000002D10B99884509D908F10108B1
:1007A00006E0E00501D5244801E042F20F708146E1
:1007B000B9696D1C0E98884782460F980560002E17
:1007C00004DD504603F0F4FF0028D6D1F9690E98F5
:1007D0008847FF208BF8000088F800000020069072
:1007E00007904B466A4608A906A8FFF777FEA005C2
:1007F00002D46FF001002AE714F0240F0AD0E007BA
:1008000014D1DDE906123868031D3B600068C0E9B9
:1008100000120BE0DDE9060100F0D4F90146E00723
:1008200004D13868021D3A600068016028460EE76E
:10083000000014400000F03FF1D8FFFF2DE9FE4F0B
:10084000804681EA0300C00F0C46009021F0004171
:1008500023F00045B8EB0200A94105D240462146ED
:1008600090461C460B46024623F00040104347D0FA
:10087000270DC7F30A00C3F30A510290401A0190F2
:1008800040286BDAC3F3130040F4801B00989246B3
:1008900020B10023D2EB030A63EB0B0B01985946FE
:1008A000C0F14002504600F0BFF906460D465046E2
:1008B0005946019A00F0D7F910EB08006141002475
:1008C00087EA115284EAE7731A4340D0009A62B370
:1008D000019A012A4FEA075215DC001B61EB020165
:1008E0004FF0004202EA0752CDE90042001C41F5F8
:1008F000801132462B4600F051FA03B0BDE8F08F6C
:1009000040462146F9E7001B61EB0201001C41F55E
:10091000801300185B412018A2F5001747EB030174
:1009200040EAD570B6196D4111E06D084FEA360600
:1009300045EAC0754FEA0752001B61EB0201001C3B
:1009400041F5801149084FEA300000195141324603
:100950002B4603B0BDE8F04F00F011BA0098012219
:1009600040000023D0EB020263EBE07300982146C5
:100970004FEAE074B8EB000061EB0401E9E783F0B3
:1009800000435BE781F0004158E72DE9FE4F81EA23
:10099000030404F0004421F0004100944FF0000BE8
:1009A00023F0004350EA01045ED052EA03045BD016
:1009B000C3F30A54C1F30A552C44A4F2F33401944E
:1009C000A0FB0254C1F3130141F48011C3F31303DC
:1009D00043F4801301FB024400FB034E840A970A90
:1009E00044EA815447EA8357A4FB076802958D0ABD
:1009F00005FB07854FEA932C04FB0C542705029D49
:100A00004FEA065847EA1637B5EB08056EEB070CB8
:100A1000870E920E47EA811742EA8312A7FB020172
:100A2000B6EB0B0164EB00042B0D43EA0C335E18AC
:100A300044EB1C50DA465146E7FB0201C5F31304B0
:100A40004FEA0B3343EA14534FEA0432019C43EA62
:100A50000603A4F10C040294009CCDE900B400F05C
:100A60009DF903B0BDE8F08F00200146F9E72DE9BC
:100A7000F04D81EA030404F0004B21F000451446D8
:100A80004FF0000A23F0004150EA050220D054EA5A
:100A900001021DD0C5F30A570246C5F31303C1F383
:100AA0001300C1F30A5640F4801543F48013A7EBFA
:100AB0000608101BD64608F2FD3873EB050002D37A
:100AC00008F1010801E092185B41B8F1000F03DA68
:100AD00000200146BDE8F08D00204FF4801106464D
:100AE00084460EE0171B73EB050705D3121B63EB5F
:100AF000050306434CEA010C49084FEA30009218FE
:100B00005B4150EA0107EDD152EA030012D082EABC
:100B1000040083EA0501084305D0101BAB4106D24F
:100B20000122002306E000224FF0004302E06FF0B4
:100B3000010253101AEB06004CEB085110EB0A00AF
:100B400041EB0B01BDE8F04D00F019B90EB5C10F36
:100B500080EAE0700844CA07002140F233438DE880
:100B60000E000A460B4600F019F903B000BD00F074
:100B7000004230F000400AD0C10D01F56071C0F3B1
:100B8000160042EA0151C208400711437047002095
:100B90000146704730B5041E71F1000404DB4FF0CC
:100BA0000044404264EB0101141E73F1000405DBB4
:100BB0001C464FF00043524263EB04038B4208BFD4
:100BC000824230BD01F0004330B421F0004150EAD0
:100BD000010206D00A0DA2F56072C1F31301002ACA
:100BE00002DC30BC00207047440F44EAC104C1005D
:100BF000E01830BC00EBC25000F08AB830B50B46AC
:100C0000014600202022012409E021FA02F59D423C
:100C100005D303FA02F5491B04FA02F52844151E10
:100C2000A2F10102F1DC30BD202A04DB203A00FAF7
:100C300002F1002070479140C2F1200320FA03F333
:100C4000194390407047202A04DB203A21FA02F031
:100C50000021704721FA02F3D040C2F120029140F6
:100C6000084319467047202A06DBCB17203A41FA81
:100C700002F043EAE07306E041FA02F3D040C2F129
:100C8000200291400843194670473A2800D2303874
:100C900020F02002412A01D3A2F13700884201D37B
:100CA0004FF0FF3070470000026811441378016074
:100CB00018467047D160044951610449116200210E
:100CC0001161114600F0A0B9A90C0008FD0F000841
:100CD000426842B1016811F8013B23B1521EC0E9DC
:100CE0000012184670470121C160881E7047426893
:100CF0005AB1C368016843B983688B4205D0491E65
:100D0000521CC0E90012002070474FF0FF307047BE
:100D10000029A8BF7047401C490008BF20F001000F
:100D2000704710B4B0FA80FC00FA0CF050EA0104ED
:100D300004BF10BC704749B1CCF1200421FA04F47F
:100D400011FA0CF118BF012121430843A3EB0C0158
:100D5000CB1D4FEA00614FEA102042BF002010BCBB
:100D6000704700EBC35010440029A4BF10BC70476B
:100D7000401C490008BF20F0010010BC704710B5AE
:100D8000141E73F1000408DA401C41F100019218AE
:100D90005B411A4301D120F0010010BD2DE9F04D57
:100DA00092469B4611B1B1FA81F202E0B0FA80F2AC
:100DB00020329046FFF738FF04460F4640EA0A000B
:100DC00041EA0B0153465A46084313D0114653EAF1
:100DD000010019D0C8F140025046FFF734FF054624
:100DE0000E46504659464246FFF71EFF084305D0BF
:100DF000012004E020463946BDE8F08D002005437F
:100E000046EAE0762C4337430A986305E40AA0EBF0
:100E100008000022FD0A44EA47540A3002D50020A7
:100E20000146E9E7010510196941DDE908450019A6
:100E30006941BDE8F04DA2E72DE9F04D00231A46C7
:100E40001B1A8A4103DB00200146BDE8F08DC1F387
:100E50000A52C1F3130141F480154FF0000BD10782
:100E600002D100186D41521E0027044640F2FF11C6
:100E7000384601EB620A3E468046024600204FF4A7
:100E80008011FFF7E0FEC2197141BB1846EB01006B
:100E9000B4EB030C75EB000C04D3E41A65EB00050E
:100EA00017460E46241908F101006D41804634288A
:100EB000E3DDF91946EB0600091BA84103D24FF008
:100EC000FF32134601E0002213461BEB070046EBFE
:100ED0000A51BDE8F04DFFF752BF2DE9FE4FC3F3B5
:100EE0000A5701F000450024C1F30A56C3F3130367
:100EF000C1F3130143F4801312EB020AA64641F436
:100F00008011009543EB030CA7F1010B16E0B0EB49
:100F10000A0061EB0C01071E71F1000707DA4FF0C0
:100F20000008D0EB080085F0004568EB0101171AB6
:100F300073EB0107EBD3761E001849415E45F6DAE4
:100F400050EA010209D0CDE900E5002213460296DD
:100F5000FFF724FF03B0BDE8F08F20460099F9E7C2
:100F60000EB540F2334202920022CDE90022134630
:100F7000FFF714FF03B000BDC1F30A52C1F3130120
:100F800040F2FF3341F480119A4202DA0020014618
:100F9000704740F233439A42A2F2334202DC52429B
:100FA000FFF751BEFFF740BE30B5041E71F10004DB
:100FB00004DB4FF00044404264EB0101141E73F166
:100FC000000405DB1C464FF00043524263EB040370
:100FD000994208BF904230BD064C074D06E0E068DC
:100FE00040F0010394E8070098471034AC42F6D370
:100FF000FFF7CEF8FC5800081C590008C0B24FF4A7
:10100000F05100F0C3B900002DE9F34F8BB04FF061
:10101000000801F10C000C464FF0010B46460DF1A3
:10102000080A01906269012101989047051E2DD0A0
:10103000252D2CD0216A8847C0B162690121019811
:101040009047216A88470028F7D1411E62690198BC
:10105000904700E0761CA1690B988847216A884771
:101060000028F7D1E1690B988847DBE7A1690B9865
:1010700088470746A84201D1761CD3E7E1690B985F
:1010800088477F1C02D1B8F1000F6FD046E10027DE
:1010900062693D463946019890472A2804D1626921
:1010A0000121019890470125DFF8849262690121AE
:1010B00001989047A0F130010A290AD24F45E5DC9A
:1010C00007EB870100EB4107303FDFD445F0100507
:1010D000ECE7E90601D46FF000476C280AD04C28F1
:1010E00014D0682815D06A280DD074281CD07A280E
:1010F0001AD01DE062690121019890476C2802D046
:1011000045F0040514E045F002050DE045F020052A
:101110000AE06269012101989047682802D045F0F1
:10112000080505E045F400656269012101989047D2
:10113000C4E9015765283DD019DC58287AD00CDC69
:10114000452837D004DC252826D0412831D131E08C
:1011500046282FD047282CD12CE05B2877D0612857
:1011600028D063287CD0642823D15AE0D0E06F28AF
:1011700048D008DC66281DD067281BD0692821D0FC
:101180006E2816D127E0702845D0732868D07528BE
:1011900047D078280DD14DE0A1690B9888470546C6
:1011A00025283FF469AFE1690B9888476D1C3FF42F
:1011B0006AAFB3E023466A466FF001000B99FFF770
:1011C00021FA9EE045F040006060A80723464FF0FA
:1011D000000236D43EE0E8077FF447AF2068011DE7
:1011E00021600068290501D506701BE7290701D594
:1011F000068017E7A90703D5F117C0E9006111E7D9
:1012000006600FE745F040006060A80723464FF0F6
:10121000080216D41EE040F60E0125EA01006060C7
:1012200016E045F040006060A80723464FF00A0230
:1012300007D40FE045F040006060A80708D52346BA
:1012400010226FF001000B99AFF3008059E007E026
:10125000234610226FF001000B99FFF729F850E0A8
:101260004FF000094F464B46632802D05B2806D05A
:1012700040E0E80601D40120A06001273AE062695D
:101280000121019890475E2805D14FF0010962695C
:10129000494601989047216939B900210A465346C9
:1012A00043F82120491C0829FADBB0B3216969B948
:1012B000C11700EBD16253110AEB830122F01F0228
:1012C000821A01200B68904003430B606269012180
:1012D000019890475D28E8D1B9F1000F09D00020AE
:1012E000514651F82020D24341F82020401C0828C4
:1012F000F7DB02AB224600976FF001000B99FFF776
:101300007DF800280CDA401C08D1BBF1000F05D095
:101310004FF0FF300DB0BDE8F08FFFE74046F9E732
:10132000E90701D108F1010806444FF0000B79E606
:10133000CCCCCC0C0EB540F2334102910021CDE96A
:1013400000110A460B46FFF729FD03B000BD70B53A
:10135000C1F30A5201F000450024C1F3130140F229
:10136000FF3341F480119A4201DA002070BD40F24F
:1013700033439A42A2F2334203DC5242FFF763FC4A
:1013800000E090402C43F1D0404270BD7F2801D94D
:10139000002208E0064A02EB5002C007127800D192
:1013A000120902F00F02012090400840704700002F
:1013B00070580008FEE70000014800F015B9000071
:1013C000E8040020014800F00FB900008804002064
:1013D00001681823CAB2103AB2FBF3F2054B6FF35F
:1013E0000901032A9B5CC36500D9091D8165084674
:1013F000704700009056000810B5014600208B6928
:101400008A6A4FF0C07453B1B3F5005F15D072B162
:10141000012A0CD0022A0AD0032A09D104E01AB109
:10142000012A06D0022A03D1C96AC90100D50120C8
:1014300010BDC96AA142FAD010BD002AF7D0012A16
:10144000F2D0022AF3D0032AF3D010BD30B50468DD
:10145000256825F480252560046863608368402B37
:10146000036803D099600068C26030BD9A6000686C
:10147000C16030BD7047000010B5044600F014FB99
:101480000B49C1F80402B1F80002B0F5FF7F07D2A2
:1014900091F802220A54B1F80002401CA1F800029F
:1014A0002046BDE810400122024901F0C1B9000008
:1014B000C0000020C2020020034A0021A2F800124E
:1014C0000122024901F0B4B9C0000020C20200208C
:1014D000F0B58FB0054600F0E7FA354CD4F80412A9
:1014E000401A32285CD9B4F80002002858D031A143
:1014F0002046FEF7A8FE06004AD004F502704821F7
:101500000746FEF795FE04F51370011F821FA0F138
:101510001003CDE90C101838CDE90A32821EC31E23
:101520001039CDE908011439CDE90632001FCDE9A3
:1015300004100A1F2438811E03920091213BCDE93B
:101540000103C31E3A461D493046FEF795FE94F846
:1015500020122D2009B984F8200294F8301209B91C
:1015600084F8300294F8441209B984F8440294F8DB
:101570003C1209B984F83C0294ED840A03F0BCFDE6
:1015800084ED860B94ED890A03F0B6FD84ED8A0B99
:101590004FF400710648FEF74BFE0020A4F800024D
:1015A0000FB02846BDE8F0400122054901F040B9DE
:1015B000C000002024474E4747412C00B058000887
:1015C000C202002090F83510022903D08021416525
:1015D00001207047052180F835100068016821F06E
:1015E00001010160002070472DE9F84304464FF0E7
:1015F0000009CDF8009063484FF41651A56D0068BE
:10160000B0FBF1F72E6894F85C10082000FA01F1A5
:1016100031420FD021680A6852070BD50A6822F0C0
:1016200004020A6094F85C108840A860606D40F085
:101630000100606594F85C104FF0010808FA01F0B1
:10164000304208D021684969090604D5A860606D58
:1016500040F00200606594F85C100420884030423D
:1016600008D021680968890704D5A860606D40F03A
:101670000400606594F85C1010208840304218D057
:1016800021680968090714D5A86020680168490322
:1016900004D50068000308D5A16C07E00168C905FE
:1016A00003D4016821F008010160216C09B12046D2
:1016B000884794F85C1020208840304231D021685F
:1016C0000968C9062DD5A86094F83500052820685A
:1016D000016806D0490347D5006800031DD4616C3A
:1016E0001CE021F0160101602068416921F08001B1
:1016F0004161206C08B9A06C20B12068016821F01C
:101700000801016094F85C103F208840A86084F8CC
:10171000349084F83580216D1FE0E16B09B12046DB
:101720008847606D00282BD0606DC00714D005205D
:1017300084F835002068016821F0010101600098FB
:10174000401C0090B84203D820680068C007F6D15A
:1017500084F8349084F83580E16C002910D001B011
:101760002046BDE8F04308470168C905D5D40168A3
:1017700021F01001016084F8349084F83580CCE7C2
:10178000BDE8F883B40000202DE9F041044600F0E4
:101790008BF906465CB1002584F83450022084F8A9
:1017A00035002068016821F0010101600DE0012091
:1017B000BDE8F08100F078F9801B052805D92020CC
:1017C0006065032084F83500F2E720680068C007F0
:1017D000F0D12268116820480140D4E90103184380
:1017E000D4E903363343184363691843A3691843A4
:1017F000E3691843236A18430843616A042903D143
:10180000D4E90B1319430843106020684069666AE5
:1018100020F0070130460E43012704280CD1A06AAE
:101820000643E06A40B12046FFF7E6FD20B14020C4
:10183000606584F83570BAE7206846612046FFF796
:10184000C7FD94F85C203F2191408160656584F874
:1018500035700020ACE700003F8010F02DE9F0412A
:101860000446866D90F83400002501280DD0012033
:1018700084F8340094F835700020012F07D084F8E4
:10188000340002252846BDE8F0810220FBE702274C
:1018900084F8357060652046FFF7D8FD94F85C1039
:1018A0003F208840B0602068016841F01601016067
:1018B0002068416941F080014161206C20B12068BD
:1018C000016841F0080101602068016841F00101F0
:1018D0000160D7E770B5044600F0E6F80546601CE5
:1018E00002D004480078044400F0DEF8401BA04217
:1018F000FAD370BDA80000202DE9F84FDFF87CB1C5
:1019000000224FF001084FF0030A4FF00F090BF1CE
:10191000040E00BF0B6808FA02F42340A3426ED104
:101920004D68022D01D0122D0ED1D50800EB850C8B
:10193000DCF820505607F70E09FA07F6B5430E6992
:10194000BE402E43CCF82060066855000F790AFA95
:1019500005FC07F0030726EA0C06AF403743076093
:101960004E68012E05D0022E03D0112E01D0122E6A
:101970000ED18668CF6826EA0C06AF4037438760F1
:101980004668A6430C79C4F3001494403443446081
:10199000C6688C6826EA0C06AC403443C4604C68C8
:1019A000E40065D5364C256845F4804525602468FB
:1019B00022F0030504F480440094324C2E19D6F82A
:1019C000084895072F0F09FA07F5AC432E4DA8429A
:1019D00001D1002524E02D4DA84201D101251FE0B1
:1019E0002B4DA84201D102251AE02A4DA84201D16F
:1019F000032515E0284DA84202D1042510E037E068
:101A0000264DA84201D105250AE0254DA84201D165
:101A1000062505E0234DA84201D1072500E0082551
:101A2000BD402543C6F80858DBF800405D464E68C7
:101A30009C43F60300D51C432C60DEF8004075463D
:101A40004E689C43B60300D51C432C600B4D0835F3
:101A50002C684E689C43F60200D51C432C60074D51
:101A60000C352C684E689C43B60200D51C432C6094
:101A7000521C102AFFF44EAFBDE8F88F003C014025
:101A8000443802400030014000000240000402409F
:101A900000080240000C0240001002400014024006
:101AA00000180240001C0240014880687047000096
:101AB000A8000020024881680278114481607047C4
:101AC000A80000200B4810B5016841F400710160C6
:101AD000016841F480610160016841F48071016036
:101AE000032000F097F8002000F006F800F024F83A
:101AF000002010BD003C024070B50D4D04464FF46F
:101B00007A712878B1FBF0F00A490968B1FBF0F06E
:101B100000F01BFB48B9102C07D200222146501EB2
:101B200000F058F800206C6070BD012070BD00000E
:101B3000A8000020B40000201F4808B5016841F447
:101B400080410160006800F4804000901A48001F46
:101B5000016841F080510160006800F08050009001
:101B6000032000F057F8002211466FF00B0000F040
:101B700031F8002211466FF00A0000F02BF8002225
:101B800011466FF0090000F025F800221146501FA1
:101B900000F020F800221146101F00F01BF8002270
:101BA0001146901E00F016F80022BDE808401146CC
:101BB000501E00F00FB800004438024000F01F0231
:101BC000012191404009800000F1E020C0F800119F
:101BD00070470000F0B40E4B1B680C46C3F30223A1
:101BE000C3F10705042D00D90425191D072901D2C9
:101BF000002300E0DB1E012606FA05F1491E214004
:101C000099409E40761E16403143F0BC00F028BF3C
:101C10000CED00E0064900F0070208684FF6FF03EC
:101C2000184040EA0220034A104308607047000051
:101C30000CED00E00000FA052DE9F0470E46050026
:101C400065D0DFF81481D8F80000F7B200F00F007B
:101C5000B04207D288F80070D8F8000000F00F00FA
:101C6000B04254D128683D4C810712D5400703D5B6
:101C7000206840F4E05020602878000703D52068F1
:101C800040F4604020602068A96820F0F00008431C
:101C900020602878C0072DD03049686808390128AD
:101CA00012D0022813D0032811D00968890700290F
:101CB0002DDA216821F0030101432160FFF7F4FED2
:101CC000814641F2883A0EE009688903EFE7096826
:101CD0008901ECE7FFF7E8FEA0EB0901514502D9C5
:101CE0000320BDE8F0872068696800F00C00B0EBC5
:101CF000810FEFD1D8F80010404601F00F01B1423A
:101D000007D90770006800F00F00B04201D0012031
:101D1000E7E72878400705D52068E96820F4E05017
:101D2000084320602878000706D52068296920F438
:101D3000604040EAC100206000F03CF82168084A99
:101D4000C1F30311515CC840064908600020FFF749
:101D5000D3FE0020C5E70000003C024008380240E6
:101D600098560008B4000020014800687047000041
:101D7000B40000200448054900680968044AC1F31A
:101D80008221515CC8407047B400002008380240EE
:101D9000A85600080448054900680968044AC1F3C8
:101DA0004231515CC8407047B400002008380240FE
:101DB000A8560008154810B5006810F00C02144829
:101DC00013D04110042A0FD0082A0ED10F4C241F23
:101DD0002268236802F03F025B0207D52068C0F347
:101DE0008810A0FB010106E0084610BD2168C1F380
:101DF0008811A1FB00010023FEF7E2F92168C1F37D
:101E00000141491C4900B0FBF1F010BD0838024007
:101E10000024F4002DE9F84F050076D02878DFF88B
:101E2000F8B2BE4CC00749D0DBF800105846C1F3E9
:101E30008101012908D00068C0F3810002280AD17D
:101E4000201D0068400206D52068800336D56868EA
:101E50000028E2D032E06868B0F5803F10D0B0F5DD
:101E6000A02F206810D020F480302060206820F45B
:101E7000802020606868A0B1FFF716FE06460CE0DF
:101E8000206840F48030F4E740F480202060F7E7D9
:101E9000FFF70AFE801B642873D820688003F7D5FB
:101EA0000CE0FFF701FE064605E000BFFFF7FCFD72
:101EB000801B6428F0D820688003F7D42878DFF8E6
:101EC000608280074FF000093ED5DBF800105846CD
:101ED00011F00C0F09D00068C0F3810002280BD16B
:101EE0008D48001F0068400206D42068800715D581
:101EF000E868012809D111E0E868B8B10120C8F804
:101F00000000FFF7D1FD064605E002E1FFF7CCFD3A
:101F1000801B0228C0D820688007F7D5206829696F
:101F200020F0F80040EAC10020600DE0C8F8009001
:101F3000FFF7BAFD064604E0FFF7B6FD801B022856
:101F40001FD820688007F7D42878000722D5724E62
:101F5000744869696C3671B101210160FFF7A4FD15
:101F6000074604E0FFF7A0FDC01B022809D830682F
:101F70008007F7D50EE0C0F80090FFF795FD074603
:101F800005E083E0FFF790FDC01B02287ED8306893
:101F90008007F7D42878400768D5DFF87CA10027B0
:101FA0000AF1380ADAF80000C0000BD4DAF80010A1
:101FB00041F08051CAF80010DAF80000012700F063
:101FC00080500090584E3068C00510D4306840F4FE
:101FD00080703060FFF768FD009005E0FFF764FD5A
:101FE0000099401A022851D83068C005F6D54A4EEB
:101FF000A868683601280FD00528306810D020F076
:1020000001003060306820F004003060A868B8B18A
:10201000FFF74AFD00900FE0306840F00100F4E760
:1020200040F004003060F7E7FFF73EFD0099411AE9
:1020300041F28830814264D830688007F4D50EE0E0
:10204000FFF732FD009007E0FFF72EFD0099411ADF
:1020500041F28830814254D830688007F4D42FB1DF
:10206000DAF8001021F08051CAF80010A869C0B356
:10207000DBF80010C1F3810102294AD0022848464A
:1020800007D0C8F86000FFF70FFD00E039E0054613
:102090003AE04746C8F86000FFF706FD064604E050
:1020A000FFF702FD801B02282BD820688001F7D49F
:1020B000D5E907010843A96A1C4A490802EB014116
:1020C0006A6A41EA8211084395F82C1040EA0161DE
:1020D0001148001F016001203866FFF7E5FC054646
:1020E00005E014E0FFF7E0FC401B022809D8206857
:1020F0008001F7D50BE000BFFFF7D6FC401B02289C
:1021000002D90320BDE8F88F20688001F4D40020B4
:10211000F8E70120F6E700000838024000380240E6
:1021200000004742800E4742007000400000FFFF61
:102130004FF0E0210428086903D020F00400086172
:10214000704740F00400FAE7704710B5401EB0F148
:10215000807F01D3012010BD4FF0E02460610F218A
:10216000601700F07DFC0020A061072020610020A6
:1021700010BD10B5FFF7E8FF10BD7047704730B5D0
:1021800090F83820012A20D0012280F8382002233C
:1021900080F8393003685C6824F070045C60036880
:1021A0005C680D682C435C6003689C6824F08004C4
:1021B0009C6003689C6849680C439C6080F83920E7
:1021C000002180F83810084630BD022030BD10B51F
:1021D000040003D094F8390010B107E0012010BDCD
:1021E000002084F83800204600F00CF8022084F823
:1021F0003900211D206800F057FD012084F83900C6
:10220000002010BD08B501681048B1F1804F0BD017
:102210000F4A914207D1016841F002010160006854
:1022200000F00200009008BD016841F0010101606A
:102230000068002200F00100009011461C20FFF70A
:10224000C9FCBDE808401C20FFF7B8BC403802407C
:10225000000400400168CA6842F00102CA600068D8
:10226000016841F0010101600020704770B504462B
:1022700090F83800012817D0012584F83850022042
:1022800084F839002068826822F0770222F47F42C5
:1022900082600868502837D00DDC202859D005DC32
:1022A00088B3102841D151E0022070BD302853D0AE
:1022B00040283AD13FE060282ED070280BD0B0F5EE
:1022C000805F03D0B0F5005F2FD110E020688168F7
:1022D00021F0070115E0CB68D1E90121206800F069
:1022E00043FD2168886840F0770088601DE0CB6876
:1022F000D1E90121206800F037FD2068816841F4B0
:102300008041816011E01EE0CA684968206800F0E1
:102310003DFD5021206806E0CA684968206800F049
:1023200046FD6021206800F029FD84F83950002026
:1023300084F8380070BDCA684968206800F026FD3E
:1023400040212068EFE700212068ECE71021206899
:10235000E9E720212068E6E730212068E3E77047BD
:1023600070B50446006801694FF00005C94389074C
:1023700015D4C168C943890711D4E91E0161012040
:102380002076206880698007204602D0FFF7E7FFAB
:1023900004E000F098F8204600F096F825762068D2
:1023A0000169C943490717D4C168C943490713D410
:1023B0006FF004010161022020762068806910F42A
:1023C000407F204602D0FFF7CAFF04E000F07BF810
:1023D000204600F079F8257620680169C94309078D
:1023E00016D4C168C943090712D46FF0080101610E
:1023F000042020762068C0698007204602D0FFF7BD
:10240000AEFF04E000F05FF8204600F05DF82576AE
:1024100020680169C943C90617D4C168C943C90600
:1024200013D46FF010010161082020762068C06984
:1024300010F4407F204602D0FFF791FF04E000F047
:1024400042F8204600F040F8257620680169C9432B
:10245000C90708D1C168C943C90704D1891E0161F0
:10246000204600F032F820680169C943090609D402
:10247000C168C943090605D46FF080010161204697
:10248000FFF77BFE20680169C943490609D4C1688A
:10249000C943490605D46FF040010161204600F0B0
:1024A00015F820680169C94389060BD4C168C9437E
:1024B000890607D46FF0200101612046BDE8704015
:1024C000FFF75CBE70BD704770477047704770473C
:1024D00070B5026804461068D168536910F00F0F98
:1024E00050D003F0010501F4907635435DD0C2076A
:1024F00005D0CA0503D5E26B42F00102E263420750
:1025000005D5DA0703D0E26B42F00202E2638207EC
:1025100005D5DA0703D0E26B42F00402E26302075A
:1025200005D5DA0703D0E26B42F00802E263E26B02
:10253000002A33D0800604D5880602D5204600F054
:10254000AFFC20684069E16BC0F38010090700D43C
:1025500028B3204600F08DFC2068416949061AD551
:10256000416921F040014161606BA0B11B490165E7
:10257000606BFFF727F8002810D0606B016DBDE895
:1025800070400847830610D58B060ED52046BDE85F
:10259000704000F085BC2046FFF799FF70BD2046D3
:1025A000FFF795FF0020E06370BD030606D50B061C
:1025B00004D52046BDE8704000F00EBE4006F3D5BD
:1025C0004806F1D5D168204621F04001D160202194
:1025D00084F8391000F0EEF970BD0000D32D00082A
:1025E00070B5040004D094F83900002510B106E05D
:1025F000012070BD84F83850204600F023F82420D4
:1026000084F839002068C16821F40051C160204677
:1026100000F08CFC2068016921F490410161206880
:10262000416921F02A0141612068C16841F40051EB
:10263000C160E563202084F8390084F83A00002066
:1026400070BD00002DE9F0470646DFF808810568F7
:1026500002210024404801220323DFF800A18F0655
:1026600086B04FF0070C4FF4806945452FD10568BF
:1026700045F010050560006800F010000590580254
:102680008DE80F1069465046FFF736F9354D34484E
:102690002860C5E90174C5E903496C61AC61EC616E
:1026A0002C6228466C62FFF76FF818B1B7212EA094
:1026B00000F0FDFD7563002211462520AE63FFF793
:1026C00089FA2520FFF77AFA06B0BDE8F087DFF82F
:1026D000B480454529D12048001F056845F40035E0
:1026E0000560006800F4003005900C208DE80F10A4
:1026F00069465046FFF700F9244D23482860C5E994
:102700000174C5E903496C614FF40030AC61C5E95F
:10271000074028466C62FFF737F818B1E42112A091
:1027200000F0C5FD7563AE63CEE7194CA542CBD171
:10273000046844F020040460006800F02000059064
:10274000C0208DE80F000820049069461148FFF76B
:10275000D3F8B9E7001001404438024000000240BD
:1027600040640240880400202E2E2F5372632F7382
:10277000746D3332663478785F68616C5F6D737046
:102780002E6300000044004088600240E8040020FE
:102790000014014000080240F8B5044690F83A00E1
:1027A00020283CD1C1B3BAB394F83800012836D000
:1027B000012084F83800A162A2850025E56322206B
:1027C00084F83A00636B1748D863636B1648186443
:1027D000636B1648D864606B134605650846666BE4
:1027E000216802463046091DFFF738F82068016865
:1027F0004168009184F83850C16841F48071C1602B
:102800002068416941F0010141612068416941F05E
:10281000400141610020F8BDFFE70120FBE70220F5
:10282000F9E700002D2E0008692E0008E32D0008AE
:1028300090F83A30202B1DD1D1B1CAB190F8383080
:10284000012B17D081628285C2850021C1632222BB
:1028500080F83A2080F8381001684A6942F0010295
:102860004A610068C16841F49071C16000207047FE
:10287000012070470220704710B51D4904460068CA
:102880000968884202D11A48FEF7F6FD1849206807
:1028900040310968884229D1164C154901209039E8
:1028A0006060152201F1D000FFF776FF10489038E4
:1028B00001F016FE51EC100BFEF784F9A0610C48F4
:1028C000903801F0B7FE51EC100BFEF77BF9E06198
:1028D0000748903800782070302807D1044830220B
:1028E0001121BDE81040C030FDF79BBC10BD0000B9
:1028F000A00300206000002070472DE9F843044643
:1029000090F839001F4616460D46202850D1A5B133
:102910009EB194F8380001284AD0012084F838008C
:102920004FF00008C4F83C80212084F83900FFF7FC
:10293000BBF8A6848146E68426E00120BDE8F88342
:10294000E08C401EE084A0684B46B0F5805F4FF0FD
:1029500000024FF080012046009703D000F06DFC8C
:10296000E8B90DE000F069FCC8B928882168C0F317
:1029700008004860206908B16D1C05E0AD1C03E04B
:10298000216815F8010B4860E08C0028D8D14B462F
:10299000002240212046009700F04FFC08B10320A0
:1029A000CCE7202084F8390084F838800020C5E77F
:1029B0000220C3E77047FEE710B5124886B04FF01B
:1029C000804101604AF20F410024C0E90114132143
:1029D000C0E90314FFF7FBFB00B1FEE74FF48050A2
:1029E000009069460748FFF741FC00B1FEE70494F8
:1029F00004A904480594FFF7C2FB002800D0FEE7B5
:102A000006B010BD2803002010B5134886B0114948
:102A100001604AF20F410024C0E901140721C0E916
:102A20000314FFF7D4FB00B1FEE74FF48050009091
:102A300069460948FFF71AFC00B1FEE7049404A9AF
:102A400005480594FFF79BFB002800D0FEE706B081
:102A500010BD00000004004064030020FEE7704742
:102A60000907090E002806DA00F00F0000F1E02047
:102A700080F8141D704700F1E02080F800147047C2
:102A80007047704710B5FFF715F8BDE81040FFF725
:102A900070BB000030B5244893B00025016841F0B8
:102AA00080510160006800F0805011901F4801685B
:102AB00041F4804101600068022400F480401190DC
:102AC00001200090000401908001CDE9064008AA91
:102AD0000420A82182E813000B906846FFF79AF9BA
:102AE00000B1FEE70CA90F2081E831004FF4A0509F
:102AF0000F904FF48050109005210CA8FFF79CF820
:102B000000B1FEE7FFF730F94FF47A71B0FBF1F056
:102B1000FFF71BFB0420FFF70BFB00221146501EA2
:102B2000FFF758F813B030BD403802400070004045
:102B30001048016841F4700101600F48016841F0DC
:102B4000010101600C4A00210832116002680B4B40
:102B50001A400260031D0A4A1A60026822F48022A9
:102B6000026005480C30016002495806803908604F
:102B70007047000088ED00E000380240FFFFF6FEDD
:102B8000103000247FB53C4C0025606A401C606218
:102B9000322803DB3948FEF79BFC6562206A9FED13
:102BA000380B401C53EC102B206294ED0C0B51ECB5
:102BB000100BFDF7E4FE9FED341B53EC112BFDF7DA
:102BC000DEFE41EC100B00F067FE84ED0E0B51ECC5
:102BD000100BFDF7F7FF00EE100A02F0DBFB84EDAF
:102BE000100B94ED060AB5EEC00AF1EE10FA14D0FF
:102BF00094ED070AB5EEC00AF1EE10FA0DD094ED8F
:102C0000030AB5EEC00AF1EE10FA06D094ED050AFB
:102C1000B5EEC00AF1EE10FA05D19FED1D0B84ED63
:102C2000100B84ED0E0B1548903802782270206A44
:102C300064281ADB94ED0A0B10488DED020B94ED1D
:102C4000100B15A18DED000BC03000F031FB0B48CF
:102C5000C030FDF70AFB094982B2C0314FF47A73E4
:102C6000A1F14000FFF749FE256204B00348BDE82A
:102C700070407838FFF774BB60000020A00300208C
:102C80000000000000805640000000403333224026
:102C90000000000000000000256320252E32662081
:102CA000252E326600000000F0B50268234B244D4B
:102CB000244E254F254C4FF0804C984209D060455A
:102CC00007D0A84205D0B04203D0B84201D0A042FC
:102CD00004D122F0700E4A6842EA0E0298421BD0DC
:102CE000604519D0A84217D0B04215D0B84213D0D1
:102CF000A04211D0164DA8420ED0164DA8420BD0BE
:102D0000154DA84208D0154DA84205D0144DA84233
:102D100002D0144DA84203D122F44075CA682A4358
:102D200002608A68C2620A688262984201D0A04248
:102D300001D10969016301214161F0BD0000014039
:102D40000004004000080040000C00400004014066
:102D5000004001400044014000480140001800408C
:102D6000001C00400020004010B5846842EA0322A5
:102D700024F47F440A432243826010BD826822F01B
:102D800070020A4342F007018160704710B5036A80
:102D9000046A24F001040462846924F0F00444EA23
:102DA000021423F00A020A438461026210BD10B5C6
:102DB000036A23F0100303628369046A23F47043F7
:102DC00043EA023224F0A00343EA01118261016266
:102DD00010BD10B5806B0021C185C184FFF777FB62
:102DE00010BD70B5846B2068406994F83910C0F349
:102DF000C0100025212904D118B1E584204600F037
:102E000046F82068406994F83A10C0F380102229EF
:102E100004D118B1E585204600F02BF8E06B40F0B6
:102E20001000E0632046FFF752FB70BD10B501466D
:102E3000806B09680968C90513D40021C185016840
:102E4000CA6822F48072CA6001684A6922F00102ED
:102E50004A6101684A6922F040024A61202180F8F3
:102E60003A10FFF709FD10BD10B5806BFFF744FD68
:102E700010BD0168CA6822F49072CA6001684A698C
:102E800022F001024A61202180F83A10704701685F
:102E9000CA6822F0C002CA60202180F83910704749
:102EA00010B590F83A10222901D0022010BD816897
:102EB000B1F5805F11D00169002901681FD0496810
:102EC00001F07F03816A4A1C82620B70C18D491E2A
:102ED0000904090CC18518D026E00269816A002A1C
:102EE0000268526805D0D2B20A80816A491C8162A8
:102EF000ECE7C2F308020A80816A891CF7E74A6896
:102F0000816A4B1C83620A70E0E70168CA6822F498
:102F10009072CA6001684A6922F001024A61202168
:102F200080F83A10FFF7A8FC002010BD2DE9F04111
:102F300004460068016921F44052E16811430161CF
:102F40002168C86849F20C6290432369A268E56968
:102F50001A4363692B431A430243CA6021684869D4
:102F600020F44072A06910434861E1696425B1F51D
:102F7000004F9748974A21684FF032083FD091425E
:102F800001D081427CD1FEF705FF00EBC00101EBCF
:102F9000001061688900B0FBF1F6FEF7FBFE00EB64
:102FA000C00101EB001061688900B0FBF1F0B0FBDB
:102FB000F5F06FF01801484306EB800108EB0110B3
:102FC000B0FBF5F000F0F006FEF7E4FE00EBC00108
:102FD00001EB001061688900B0FBF1F0B0FBF5F087
:102FE00006EB0016FEF7D6FE00EBC00101EB001069
:102FF00061688900B0FBF1F7FEF7CCFED2E09142A8
:1030000001D081423DD1FEF7C5FE00EBC00101EBCE
:10301000001061684900B0FBF1F0B0FBF5F006016B
:10302000FEF7B8FE00EBC00101EB0010616849003B
:10303000B0FBF1F7FEF7AEFE00EBC00101EB0010B4
:1030400061684900B0FBF1F0B0FBF5F06FF01801DA
:10305000484307EB800108EBC100B0FBF5F000F03E
:10306000F80006EB4006FEF795FE00EBC00101EB11
:10307000001061684900B0FBF1F7FEF78BFE3CE001
:1030800055E0FEF777FE00EBC00101EB0010616830
:103090004900B0FBF1F0B0FBF5F00601FEF76AFE67
:1030A00000EBC00101EB001061684900B0FBF1F7D3
:1030B000FEF760FE00EBC00101EB00106168490003
:1030C000B0FBF1F0B0FBF5F06FF01801484307EBEF
:1030D000800108EBC100B0FBF5F000F0F80006EB52
:1030E0004006FEF747FE00EBC00101EB00106168EF
:1030F0004900B0FBF1F7FEF73DFE00EBC00101EB2C
:10310000001061684900B0FBF1F0B0FBF5F06FF022
:103110001801484307EB800108EBC100B0FBF5F054
:1031200000F00700216830448860BDE8F081FEF7B8
:1031300021FE00EBC00101EB001061688900B0FBCB
:10314000F1F6FEF717FE00EBC00101EB001061681D
:103150008900B0FBF1F0B0FBF5F06FF018014843C7
:1031600006EB800108EB0110B0FBF5F000F0F00673
:10317000FEF700FE00EBC00101EB00106168890062
:10318000B0FBF1F0B0FBF5F006EB0016FEF7F2FD38
:1031900000EBC00101EB001061688900B0FBF1F7A2
:1031A000FEF7E8FD00EBC00101EB0010616889004B
:1031B000B0FBF1F0B0FBF5F06FF01801484307EBFE
:1031C000800108EB0110B0FBF5F000F00F00A9E75B
:1031D000001401400010014090F83910212901D05D
:1031E000022070478168B1F5805F016A0BD04A1CEC
:1031F0000262026809785160C18C491E0904090CF9
:10320000C1840ED017E009880268C1F3080151603B
:1032100001690029016A02D0491C0162ECE7891C9E
:10322000FBE70168CA6822F08002CA600068C168D2
:1032300041F04001C160002070472DE9F0419846FF
:1032400017460E460446069D1DE0681C1BD02DB196
:10325000FEF72AFCA0EB0800A84214D92068C16838
:1032600021F4D071C1602068416921F00101416100
:10327000202084F8390084F83A00002084F83800CF
:103280000320BDE8F0812068006836EA000004D021
:103290000020B842D9D00020F3E70120F9E7000070
:1032A0000148FFF715B90000A0030020FEE7FEE784
:1032B0000FB4084B10B504A902AA039801F080FAD4
:1032C000044602A9002001F012FE204610BC5DF861
:1032D00014FB0000EF4E000803B401984100009871
:1032E00050EAC12018BF04204A0D18BF40F0010069
:1032F00040F2FF72B2EB515F08BF40F002000128BC
:1033000008BF052002B0704770B59B482DED020B39
:103310002DED068B079D25F00044A04218DC974850
:10332000844202DC0AD1069840B19DED060BBDEC4B
:10333000068B02B0BDE8704000F0C6BF002DCCBFC8
:103340009FED8F0B9FED900BBDEC068B02B070BD17
:103350008F48A04215DD8F48A042D8BF4FF0FF3400
:1033600058DD9DED060B51EC100BFFF7B5FF04285F
:1033700008BF00F0CDFF9DED060BBDEC068B02B043
:1033800070BD9DED060B51EC100B01F0F7FFCDE980
:10339000060181489FED828BA0423CDD8248A0421D
:1033A0001FDD00249FED82AB9DED060B53EC1A2B25
:1033B00051EC100BFDF742FA9DED060B41EC190B99
:1033C00053EC1A2B51EC100BFDF7DFFA53EC182BD2
:1033D000FDF7D5FA53EC192BFDF749FBCDE90601B2
:1033E00049E09DED060B012453EC182B51EC100B1A
:1033F000FDF724FA9DED060B41EC190B53EC182B4D
:1034000051EC100BFDF7BBFA53EC192BFDF72FFB1A
:10341000CDE906012FE06848A0421FDD02249FEDA0
:10342000689B9DED060B53EC192B51EC100BFDF72F
:10343000ACFA53EC182BFDF701FA9DED060B41ECAD
:10344000180B53EC192B51EC100BFDF798FA53ECB9
:10345000182BFDF70CFBCDE906010CE09DED060BEA
:10346000032453EC102B9FED580B51EC100BFDF780
:10347000FEFACDE906019DED060B53EC102B51EC45
:10348000100BFDF782FA41EC180B53EC182BFDF7EB
:103490007CFA41EC190B4E480621B0EE490AF0EED9
:1034A000690A784400F0FCFD53EC182B51EC100B2A
:1034B000FDF76BFA41EC180B4648B0EE490AF0EE06
:1034C000690A0521784400F0EBFD53EC192B51EC0F
:1034D000100BFDF75AFA41EC100B51EC180B53ECA2
:1034E000102B002C0EDAFDF7A9F99DED061B53EC0D
:1034F000112BFDF74AFA9DED061B53EC112BFDF73E
:1035000041FA35E0FDF79AF99DED061B53EC112BBE
:10351000FDF73BFA41EC100B2F48784400EBC40058
:1035200090ED001B51EC100B53EC112BFDF727FA1B
:103530009DED061B53EC112BFDF721FA41EC100B0E
:103540002648784400EBC40090ED001B51EC100BB2
:1035500053EC112BFDF716FA41EC100B002DA2BF16
:10356000BDEC068B02B070BD51EC100B81F0004138
:1035700041EC100B01E70000000010440000F07F58
:10358000182D4454FB21F93F182D4454FB21F9BF59
:103590000000DC3F0000203E0000F33F0000000080
:1035A000000000000000F03F0000E63F00000000C7
:1035B0000000000000000040008003400000000008
:1035C000000000000000F83F000000000000F0BF15
:1035D0007222000028220000B22100006A210000AF
:1035E00070B56B4E2DED040B2DED028B82B0DDF826
:1035F0001CC0DDE905235C422CF000411C4341EA7C
:10360000D474049D22F00040B44205D86C422C438F
:1036100040EAD474B4420BD99DED061B9DED040B1A
:1036200002B0BDEC028B04B0BDE8704000F056BEA5
:10363000ACF14054A4F17F641C430BD0022404EA93
:10364000AC7444EAD27405439FED538B9FED542B29
:1036500007D015E09DED040B51EC100B01F04CFC74
:1036600042E0002C11BF012C9DED040B02B0BDEC1B
:10367000028B04BF04B070BD022C38D0032C3BD0A9
:103680000B439FED491B9FED4A0B0AD0B14218D165
:10369000B04209D121F0804120F08040079105908F
:1036A0000FE0002A15DA10E0434B7B44002C08BFE2
:1036B00093ED000B0DD0012C10D0022C17D0032C51
:1036C0001AD0B0421DD1002A03DAB0EE410AF0EE62
:1036D000610A02B0BDEC028B04B070BD93ED000B2B
:1036E00051EC100B81F0004141EC100BF1E7B0EE12
:1036F000480AF0EE680AECE7B0EE420AF0EE620A21
:10370000E7E7401A00153C28C8BF8DED000B19DC17
:10371000BCF1000FBEBF10F13C0F9FED290B8DEDEA
:10372000000B0FDB9DED060B53EC102B9DED040BF6
:1037300051EC100BFDF79BF901F020FE01F0DCFBD2
:10374000CDE90001002C08BF9DED000BC1D0012C7C
:1037500010D0022C9FED1C0B53EC102B9DED000B99
:1037600051EC100B0DD0FDF70AF953EC182BFDF7B7
:1037700006F9B9E7019880F0004001909DED000B3B
:10378000A7E7FDF7FCF853EC182BFDF7FBF8ABE7C8
:103790000000F07F00000000182D4454FB21094078
:1037A000182D4454FB2109C0182D4454FB21F9BFA6
:1037B000182D4454FB21F93FCA20000000000000EE
:1037C0000000000000000000075C143326A6A13CA6
:1037D00010B52F499FED2C1B2DED020B84B00598E1
:1037E00020F000408842D8BF9DED040B2DDD294913
:1037F000884209D1049840B94FF0010000F0A8FDBB
:1038000000F076FD06B010BD05DB9DED040B00F069
:103810005BFD06B010BD68469DED040B00F06CF931
:1038200010F0030004BF9DED021B9DED000B0CD0BA
:1038300001280ED09DED021B9DED000B022817D034
:10384000012000F0A9FC06B010BD00F071FB06B02D
:1038500010BD9DED021B9DED000B012000F09CFCB6
:1038600051EC100B81F0004106B041EC100B10BD83
:1038700000F05EFB51EC100B81F0004106B041EC12
:10388000100B10BD00000000000000000000000050
:10389000FB21E93F0000F07F2DED020B019820F0A5
:1038A000004001909DED000B02B0704710B52DED6A
:1038B000040B86B09DED060B10EE100A10EE901A68
:1038C0008DED000B002818BF0120084320F00040B8
:1038D000C0F17F6000F1E040C00F21D19DED080BE9
:1038E00010EE101A10EE900A8DED000B002918BF93
:1038F0000121084320F00040C0F17F6000F1E0406A
:10390000C00F0DD129490798B1EB400F04BF0698AD
:10391000002842D00998400004BF089800283CD0F5
:103920009DED080B53EC102B9DED060B51EC100B8D
:10393000FDF7D3FACDE902019DED020B40F2FF71D4
:1039400010EE900A8DED000B31EA105021D007984F
:10395000039900F0004001F00041884219D09DED2C
:10396000080B8DED040B9DED020B8DED000B10EEA1
:10397000900A059961F31E0005909DED041B9DEDD5
:10398000020B51EC110B53EC102BFCF7FBFFCDE9B4
:1039900002019DED020B0AB010BD012000F0D8FC21
:1039A0000AB0BDE8104000F0A3BC00000000E0FF3A
:1039B00010B52F499FED2C1B2DED020B84B00598FF
:1039C00020F000408842DCBF00209DED040B32DD7A
:1039D0002849884209D1049840B94FF0010000F00D
:1039E000B7FC00F085FC06B010BD05DB9DED040BB7
:1039F00000F06AFC06B010BD68469DED040B00F0B7
:103A00007BF810F0030011D0012818D09DED021BA7
:103A10009DED000B02281AD000F08AFA51EC100B31
:103A200081F0004106B041EC100B10BD9DED021B72
:103A30009DED000B012000F0AFFB06B010BD9DED29
:103A4000021B9DED000B00F073FA06B010BD0120C3
:103A500000F0A2FB51EC100B81F0004106B041ECEC
:103A6000100B10BD0000000000000000000000006E
:103A7000FB21E93F0000F07F00B52DED048BB0EE97
:103A8000409AF0EE609A83B051EC190BFDF7D4F92F
:103A900041EC180B18EE100A18EE901A8DED008B01
:103AA000002818BF0120084320F00040C0F17F60CB
:103AB00000F1E040C00F14D019EE101A19EE900A70
:103AC0008DED009B002918BF0121084320F0004024
:103AD000C0F17F6000F1E040C00F04BF012000F0A2
:103AE00037FCB0EE480A03B0F0EE680ABDEC048B78
:103AF00000BD0000000000002DE9F14F04462DED4F
:103B0000020B2DED088B8AB09FEDE70B80ED020BC9
:103B1000139EE74826F0004585420ADC9DED120B16
:103B2000002084ED000B0AB0BDEC088B03B0BDE8AB
:103B3000F08FE0489FEDE0AB9FEDE1BBA84247DD91
:103B4000E14F9FEDE39B9FEDE48B9DED120B53EC5A
:103B50001A2B51EC100B002E1CDDFCF710FF41EC72
:103B6000100BBD4208D053EC1B2B51EC100BFCF793
:103B700006FFC4E900010BE053EC192B51EC100BCC
:103B8000FCF7FDFE53EC182BFCF7F9FEC4E900012D
:103B90000120C8E7FCF752FE41EC100BBD4208D0F3
:103BA00053EC1B2B51EC100BFCF748FEC4E9000151
:103BB0000BE053EC192B51EC100BFCF73FFE53ECD0
:103BC000182BFCF73BFEC4E900014FF0FF30AAE7D9
:103BD000C348A84279DB9DED120B51EC100B01F0AC
:103BE000CDFB41EC180B9FEDC00B53EC102BFCF7F9
:103BF000CCFE9FEDBF1B53EC112BFCF71FFEFDF716
:103C0000A6FB0746FCF7A2FF41EC190B53EC1A2B5D
:103C1000FCF7BBFE53EC182BFCF7B4FE41EC180B81
:103C200053EC1B2B51EC190BFCF7AFFEDFF8C8A2CD
:103C300041EC100B4FEA15580125FA4453EC102BB8
:103C400051EC180BFCF79BFE032DC4E900013DD09D
:103C5000C1F30A5005EB4511A8EB00001139814270
:103C600034DA0AEB051BB0EE48AA9BED000BF0EE30
:103C700068AA53EC102B51EC190BFCF786FE41ECB3
:103C80001B0B51EC1A0B53EC1B2BFCF778FE41EC91
:103C9000180B51EC1A0B53EC182BFCF770FE53EC7D
:103CA0001B2BFCF76CFE9BED020B41EC1A0B53EC4B
:103CB000102B51EC190BFCF768FE53EC1A2BFCF798
:103CC0005EFE41EC100B6D1CB8E70EE0002EA8BFA5
:103CD0003846BFF628AF94ED000B51EC100B81F085
:103CE0000041C4E9000178421DE7C6F3130040F427
:103CF000801EC6F30A50A0F2F530471100F01F05F0
:103D0000C5F12000DDF848B008900020069007902B
:103D10000520EC467949002D07EB0002794408BFE5
:103D200051F8221009D051F8223001EB8201AB404A
:103D30004A68089922FA01F11943A1FB0E26A1FB5A
:103D40000B131A449A4234BF0123002303EB0608E5
:103D50000CEB8003D3E901A60E448E4234BF01214F
:103D6000002192448A4411B1924502D903E0924560
:103D700001D2012100E00021C3E901A641444CF831
:103D80002010011EA0F10100C4DC029800F10050D7
:103D9000850F0298DDE903678000DDF81480FCF7E9
:103DA000D5FE41EC1A0B3046FDF7C4FA9FED541BCB
:103DB00053EC112BFCF7E9FD41EC1B0B3846FDF7EA
:103DC000B9FA9FED511B53EC112BFCF7DEFD41ECD2
:103DD000180B4046FDF7AEFA9FED4D1B53EC112B2F
:103DE000FCF7D3FD41EC190B51EC180B53EC192BDC
:103DF000FCF724FD53EC1B2BFCF720FD53EC1A2B96
:103E0000FCF71CFDCDE90801002008909DED080B92
:103E100053EC1A2B51EC100BFCF7B1FD53EC1B2BA0
:103E2000FCF7ADFD53EC182BFCF7A9FD53EC192B57
:103E3000FCF7A8FD9FED381B53EC112BFCF7A5FDFB
:103E40009FED370B41EC180B53EC102B9DED080B3D
:103E500051EC100BFCF799FD53EC182BFCF7EEFC22
:103E60009FED310B41EC180B53EC102B9DED080B23
:103E700051EC100BFCF789FD53EC182BFCF7DEFC22
:103E800041EC100B139810F0004F06D06D4251EC2E
:103E9000100B81F0004141EC100B284684ED000B23
:103EA00041E60000000000000000000000000000EB
:103EB000FB21E93F7CD9024000004054FB21F93F3F
:103EC0003163621A61B4D03DFB21F93F000000006C
:103ED0000000601A61B4D03D7370032E8A19A33BB1
:103EE000FB2139410000000083C8C96D305FE43F09
:103EF000000000000000E03F421B0000901A00009C
:103F0000000000000000103E000000000000103C17
:103F1000000000000000103A182D4454FB21F93D28
:103F20003326A611460B113C00000054FB21F93D3D
:103F300010B52DED040B2DED088B82B0B0EE419A3B
:103F4000F0EE619A0B9820F000449FED4BABB4F17A
:103F5000795F11DA9DED0A0B51EC100BFDF7F7F9C3
:103F6000002801BFB0EE4A0AF0EE6A0A02B0BDECCA
:103F7000088B04BF04B010BD9DED0A0B53EC102B51
:103F800051EC100BFCF701FD41EC180B3C480621ED
:103F9000B0EE480AF0EE680A784400F081F853EC7D
:103FA000182B51EC100BFCF7F0FC9DED0A0B41ECCB
:103FB0001B0B53EC192B51EC100BFCF7E6FC41ECFE
:103FC000190B53EC1B2B51EC180BFCF7DEFC53ECDC
:103FD000192BFCF7D4FC9FED2C0B41EC190B53EC87
:103FE000102B51EC180BFCF7D0FC41EC100B2848BF
:103FF000844210DA53EC192B51EC100BFCF7BFFC88
:1040000053EC1A2BFCF7BEFC41EC100B02B0BDECDC
:10401000088B04B010BD1F48A042BCBF9FED1E1B03
:104020008DED001B06DBA4F5001001900020009030
:104030009DED001B51EC100B53EC112BFCF79FFC7A
:104040009DED000B41EC180B53EC102B51EC1A0BAF
:10405000FCF795FC41EC1A0B53EC192B51EC180BA7
:10406000FCF78DFC53EC1A2BFCF78CFC41EC100B8D
:10407000CCE7000000000000000000000000F03F5E
:10408000AC17000000000000000000000000E03F4E
:104090003333D33F0000E93F000000000000D23F6F
:1040A00070B504462DED028B4D1E00EBC500B0EE41
:1040B000408AF0EE608A90ED000B35F0060017D0D4
:1040C00053EC182B51EC100BFCF75FFC41EC100B80
:1040D0006D1E04EBC50090ED001B51EC100B53EC72
:1040E000112BFCF7ABFB41EC100B35F00600E7D1D0
:1040F000022D36D0042D1CD0062D1CBFBDEC028B2A
:1041000070BD53EC182B51EC100BFCF73EFC94EDFA
:104110000A1B53EC112BFCF791FB53EC182BFCF70B
:1041200034FC94ED081B53EC112BFCF787FB41EC9E
:10413000100B53EC182B51EC100BFCF726FC94EDF4
:10414000061B53EC112BFCF779FB53EC182BFCF7F7
:104150001CFC94ED040B53EC102BFCF76FFB41ECB3
:10416000100B53EC182B51EC100BFCF70EFC94EDDC
:10417000021B53EC112BFCF761FB53EC182BFCF7E3
:1041800004FC94ED001B53EC112BFCF757FBBDEC2A
:10419000028B41EC100B70BD31B504462DED040BC4
:1041A0002DED0A8BB0EE41BAF0EE61BA0B989DEDA1
:1041B0000A0B20F00040B0F1795F0DDA51EC100BE2
:1041C000FFF78AF8042808BF00F0A2F89DED0A0B5B
:1041D000BDEC0A8B05B030BD53EC102B51EC100B2D
:1041E000FCF7D3FB41EC180B9DED0A0B53EC182B9D
:1041F00051EC100BFCF7C9FB41EC190B2C48B0EE4D
:10420000480AF0EE680A05217844FFF749FF9FED60
:104210002ACBB0EE40AAF0EE60AA9CB353EC1C2B64
:1042200051EC190BFCF7B1FB41EC1C0B53EC1A2BB6
:1042300051EC190BFCF7A9FB9FED210B41EC190B7D
:1042400053EC102B51EC1B0BFCF79FFB53EC192B81
:10425000FCF795FB53EC182BFCF797FB53EC1B2B4F
:10426000FCF78DFB53EC1C2BFCF789FB9DED0A1B27
:1042700053EC112BFCF786FBBDEC0A8B05B041EC2F
:10428000100B30BDFFE753EC1A2B51EC180BFCF769
:104290007CFB53EC1C2BFCF7D1FA53EC192BFCF7ED
:1042A00074FB9DED0A1B53EC112BFCF7C7FAE3E7F7
:1042B0003C16000000000000495555555555C5BF36
:1042C000000000000000E03F10B553EC102B51EC53
:1042D000100BFCF7B3FA41EC100B10BD10B553EC0A
:1042E000112B51EC100BFCF7A9FA41EC100B10BD8F
:1042F0009FED050B10B553EC102B51EC100BFCF798
:10430000B6FB41EC100B10BD0000000000000000E7
:104310009FED050B10B553EC102B51EC100BFCF777
:1043200034FB41EC100B10BD000000000000001039
:1043300002E008C8121F08C1002AFAD1704770476E
:10434000002001E001C1121F002AFBD170470000CC
:104350000149086070470000B80000202DE9FF5FA8
:1043600082B00021DDE90430020DDDF840B00343E6
:1043700018D044F61050A2F2FF324243151411989F
:1043800001281FD0A5EB0B00401C5FEA000A4FF08C
:1043900000064E4FDFF83891B046504615D5CAF1A9
:1043A000000413E0119801244AA3012801D16FEA07
:1043B0000B010298119AC0E90031C0E9024206B02F
:1043C000BDE8F09FCBF10000DFE704460021404A42
:1043D000491842EB0450CDE9001012E0E00707D085
:1043E00032463B4640464946FCF7CFFA804689466E
:1043F00032463B4610461946FCF7C7FA06460F46BA
:104400006410002CEAD1DDE90401DDE90023BAF1F2
:10441000000F06DAFCF7B9FA42464B46FCF7B5FA4C
:1044200005E0FCF724FB42464B46FCF720FB044624
:104430000E460022284BFCF7B7FD03D84FF0FF30A3
:10444000014607E00022254B20463146FCF7F6F9ED
:10445000FCF792FD102409E0002C0ADB0A2200235D
:10446000FBF7AEFE039B30321A55641E50EA010280
:10447000F2D1641C039AC4F111031444119A012A65
:1044800003D0012208430DD10AE0084304D00020E4
:104490004FF0110B119072E7A3EB0B056D1E0DE0B1
:1044A0005B4504DD4FF0000205F1010504E003DA8D
:1044B0004FF00002A5F10105002AECD002981199F5
:1044C000C0E90231C0E9004579E70000000014406E
:1044D0000000F03F300000000000F0430000E03F2B
:1044E0002DE9F04107462DED0C8BFBF7BEFE06468D
:1044F0000025414C08E0785D3038FCF727FB04EBE1
:10450000C5026D1CC2E90001B542F4DD94ED100B4B
:104510009FED3A1B51EC100B53EC112BFCF735FAC5
:1045200094ED0E0B9FED371B41EC1C0B53EC112B44
:1045300051EC100BFCF729FA94ED0C0B9FED331B9B
:1045400041EC1B0B53EC112B51EC100BFCF71DFA3B
:1045500094ED0A0B9FED2F1B41EC1A0B53EC112B22
:1045600051EC100BFCF711FA94ED080B9FED2B1B8F
:1045700041EC190B53EC112B51EC100BFCF705FA25
:1045800094ED060B9FED271B41EC180B53EC112B00
:1045900051EC100BFCF7F9F994ED000B9FED231B88
:1045A00041EC1D0B53EC112B51EC100BFCF7EDF90A
:1045B00094ED021B53EC112BFCF740F953EC1D2B2F
:1045C000FCF73CF953EC182BFCF738F953EC192B9A
:1045D000FCF734F953EC1A2BFCF730F953EC1B2B96
:1045E000FCF72CF953EC1C2BFCF728F9BDEC0C8BD9
:1045F00041EC100BBDE8F081480500208DEDB5A021
:10460000F7C6B03EF168E388B5F8E43E2D431CEBF5
:10461000E2361A3FFCA9F1D24D62503F7B14AE47FF
:10462000E17A843F9A9999999999B93F00000000DD
:10463000000024402DE9F04107462DED0E8BFBF7DD
:1046400014FE06460025494C08E0785D3038FCF73A
:104650007DFA04EBC5026D1CC2E90001B542F4DD30
:1046600094ED260B9FED421B51EC100B53EC112BDC
:10467000FCF78BF994ED240B9FED3F1B41EC1D0BD8
:1046800053EC112B51EC100BFCF77FF994ED220B3E
:104690009FED3B1B41EC1C0B53EC112B51EC100B11
:1046A000FCF773F994ED200B9FED371B41EC1B0BCE
:1046B00053EC112B51EC100BFCF767F994ED1E0B2A
:1046C0009FED331B41EC1A0B53EC112B51EC100BEB
:1046D000FCF75BF994ED1C0B9FED2F1B41EC190BC4
:1046E00053EC112B51EC100BFCF74FF994ED160B1A
:1046F0009FED2B1B41EC180B53EC112B51EC100BC5
:10470000FCF743F994ED140B9FED271B41EC1E0BB6
:1047100053EC112B51EC100BFCF737F953EC1E2B1B
:10472000FCF78CF894ED181B53EC112BFCF786F872
:1047300053EC182BFCF782F853EC192BFCF77EF89E
:1047400053EC1A2BFCF77AF853EC1B2BFCF776F89A
:1047500053EC1C2BFCF772F853EC1D2BFCF76EF896
:10476000BDEC0E8B41EC100BBDE8F081E80500209C
:104770008DEDB5A0F7C6B03EF168E388B5F8E43E2C
:104780002D431CEBE2361A3FFCA9F1D24D62503F9B
:104790007B14AE47E17A843F9A9999999999B93FE8
:1047A000000000000000244000000000000059400C
:1047B00030380A2801D201207047002070470000DD
:1047C0002DE9FF4F95B09B468946064600250FE22E
:1047D000252877D100242746F84A0121059400E0D6
:1047E000044316F8013F203B01FA03F01042F7D1D1
:1047F00030782A2811D06FF02F033078A0F13002E2
:10480000092A16D8059A44F0020402EB820203EB4F
:1048100042021044761C0590EFE759F8042B0592EC
:10482000002A03DA504244F40054059044F0020494
:10483000761C30782E2816D116F8010F44F00404A7
:104840002A280DD06FF02F023078A0F13003092B09
:1048500009D807EB870302EB4303C718761CF3E77D
:1048600059F8047B761C30786C280FD006DC4C2875
:1048700017D068280DD06A2814D104E0742810D00D
:104880007A280FD10DE044F400140AE044F48014B7
:1048900001E044F440147278824202D104F580149D
:1048A000761C761C307866280BD013DC582877D01D
:1048B00009DC002875D04528F6D04628F4D04728D2
:1048C0001AD19DE118E0632835D0642879D0652895
:1048D00012D195E1702873D008DC6728F1D06928DF
:1048E0006FD06E280DD06F2806D1B5E073282CD07C
:1048F000752875D0782874D05A46179990476D1C42
:1049000075E1C4F30250022809D003280DD0D9F86C
:10491000001004280DD00D6009F1040967E1D9F8F1
:104920000010EA17C1E90052F6E7D9F800100D802F
:10493000F2E70D70F0E719F8041B8DF80010002065
:104940008DF80100EA46012003E059F804AB4FF06E
:10495000FF3061074FF0000102D40DE008F10101C2
:104960008846B9420FDA8045F8DB1AF808100029AA
:10497000F4D108E008F1010188468142FADB1AF817
:1049800008100029F6D105985B46A0EB08072146E0
:104990003846179A00F094FA284400EB080507E01F
:1049A0004DE029E10DE01AF8010B5A46179990479E
:1049B000B8F10108F7D25B4621463846179A13E151
:1049C00042E00A220092C4F302524FF0000A022A87
:1049D00008D059F804CB032A4FEAEC710AD00DE055
:1049E00029E02AE009F1070121F00702F2E802C1FB
:1049F000914609E00FFA8CFC4FEAEC71042A03D1CE
:104A00004FFA8CFC4FEAEC71002907DA0A460021C4
:104A1000DCF1000C61EB02012D2202E0220504D53D
:104A20002B228DF80420012203E0E20701D020228E
:104A3000F7E7904659E00A2102E010220DE010212C
:104A40004FF0000A00910BE010224FF0000A44F0F2
:104A500004040827009203E008224FF0000A0092A5
:104A6000C4F30252022A05D059F804CB0021032ACC
:104A700008D009E009F1070121F00702F2E802C1BC
:104A8000914605E01FFA8CFC042A01D10CF0FF0CC2
:104A90004FF00008220728D5702806D0009B83F02D
:104AA000100353EA0A0305D00EE040228DF80420DB
:104AB000012208E05CEA010206D030228DF80420D1
:104AC0008DF8050002229046009B83F0080353EA0C
:104AD0000A030AD15CEA010201D1620705D530223E
:104AE0008DF804204FF001087F1E582804D034A010
:104AF00003900EA802900DE036A0F9E753466046F9
:104B0000009AFBF75DFB84460398825C0298401E86
:104B1000029002705CEA0100F0D1029806A9081A1E
:104B200000F1200A600702D524F4803400E0012758
:104B3000574502DDA7EB0A0000E0002000EB0A0168
:104B4000009005984144401A0590E00306D45B4666
:104B50002146179A059800F0B3F90544002706E0AE
:104B600001A85A46C05D179990476D1C7F1C4745A8
:104B7000F6DBE0030CD55B462146179A059800F05A
:104B80009FF9054404E030205A46179990476D1C60
:104B90000099481E00900029F5DC08E0029802996F
:104BA0005A460078491C0291179990476D1CBAF13A
:104BB0000001AAF1010AF1DC65E100000928010009
:104BC0003031323334353637383961626364656683
:104BD0000000000030313233343536373839414245
:104BE000434445460000000000F058F90544761C97
:104BF000307800287FF4ECAD19B02846BDE8F08F7E
:104C0000620700D4062709F1070222F0070CFCE82E
:104C10000223E14603F000485FEA080C02D00FF2DD
:104C2000702C0DE05FEA045C02D50FF2682C07E0FF
:104C30005FEAC47C02D00FF2602C01E0AFF2700C8E
:104C40004FF0FF3823F00043CDF850C065280CD05A
:104C500006DC452809D046281DD047283DD13DE037
:104C6000662818D067287ED138E00021112F01DB9B
:104C7000112000E0781CCDE9000106A90EA8FFF77D
:104C80006DFBDDE90F010E9A03910021009207F1FF
:104C9000010A04914DE04FF000400097CDE901106A
:104CA00006A90EA8FFF75AFBDDE90F0203920E9B3F
:104CB00011990022DDF80CA00093049211B9791C1F
:104CC00000EB010AB7EB0A0004D4C0F1FF3007F192
:104CD000010A0490AAEB0700019044E0012F00DADA
:104CE00001270021112F01DD112000E03846CDE918
:104CF000000106A90EA8FFF731FBDDE90F010E9AAE
:104D00000391002104910092BA4621070CD4039923
:104D1000514500DA8A46BAF1010F05DD009AAAF181
:104D20000101515C302908D0B84202DA10F1040FB9
:104D300006DA0121CDE9011015E0AAF10101E9E748
:104D4000002805DC049901440491AAEB000102E06B
:104D5000411C514500DD8A460499401A401C0190CF
:104D60004FF000400290200704D40198504501DB29
:104D7000CDF8048000208DF84F0002980DF14F0708
:104D8000B0F1004F25D02B200E9002984FF0020872
:104D900000280CDA404202902D200E9007E00A21F4
:104DA0000298FBF72BFF3031029007F8011DB8F194
:104DB0000001A8F10108F2DC02980028EFD1791E69
:104DC0000E980870307800F0200040F0450007F899
:104DD000020D12A8C01B00F107081498007800B15A
:104DE000012000EB0A01019801EBE07105984144B4
:104DF000401A401E0590E00306D45B462146179AF0
:104E0000059800F05DF805441498007818B15A46EA
:104E1000179990476D1CE00324D55B462146179AED
:104E2000059800F04DF805441CE00498002807DBC5
:104E3000DDE90301884203DD0098405C179901E039
:104E4000179930205A469047049805F10105401CF7
:104E500004900198401E019004D12E205A461799C3
:104E600090476D1CBAF10001AAF1010ADDDC05E0F2
:104E700017F8010B5A46179990476D1CB8F10001BD
:104E8000A8F10108F4DC5B462146179A0598ABE6C9
:104E90002D0000002B000000200000002DE9F04153
:104EA000044600251E461746880404D405E039460A
:104EB0002020B0476D1C641EF9D52846BDE8F0815E
:104EC0002DE9F041044600251E469046C80301D551
:104ED000302700E02027880404D505E04146384605
:104EE000B0476D1C641EF9D52846BDE8F0810A68FC
:104EF000531C0B601070704710B541EC100BFEF79F
:104F000003FA51EC100B10BD70B5724C2DED088BEF
:104F1000B0EE439AF0EE639AB0EE42BAF0EE62BAA7
:104F2000B0EE41AAF0EE61AA9FED6B8B51EC100B35
:104F300053EC182BFBF729FDFBF744FE206053ECE4
:104F4000182B51EC1B0BFBF720FDFBF73BFE054636
:104F5000606053EC182B51EC1A0BFBF716FDFBF7B6
:104F600031FEA06053EC182B51EC190BFBF70DFD33
:104F7000FBF728FEE0602846FBF7F9FD41EC100B3B
:104F8000FEF726FCB0EE408AF0EE608A94ED030A4C
:104F9000D4ED020A30EE600A10EE100AFBF7E7FDCE
:104FA00041EC100BFEF704FDB0EE401AF0EE601A73
:104FB00053EC182B51EC110BFBF7E7FCFBF702FE4F
:104FC000206194ED030AD4ED020A30EE600A10EE7F
:104FD000100AFBF7CCFD41EC100BFEF7F9FBB0EE2D
:104FE000409AF0EE609A6068FBF7C1FD41EC100B4F
:104FF000FEF7EEFBB0EE408AF0EE608A2068FBF729
:10500000B6FD41EC100BFEF7D3FC53EC182B51EC22
:10501000100BFBF7BAFC53EC192BFBF7B6FC41EC79
:10502000180B6068FBF7A3FD41EC100BFEF7C0FC0A
:10503000B0EE409AF0EE609A2068FBF798FD41ECE4
:10504000100BFEF7C5FBB0EE401AF0EE601A53EC01
:10505000192B51EC110BFBF798FC53EC182BFBF7B9
:105060008EFCFBF7AFFD6061FBF781FD41EC180B97
:105070002069FBF77CFD41EC100BB0EE481AF0EE16
:10508000681AFEF7ADFA9FED161B84ED100B53EC7A
:10509000112B51EC100BFBF778FC41EC100B9FED42
:1050A000121B84ED120B53EC112BFBF773FD0BD28B
:1050B0009FED0F0B53EC102B94ED120B51EC100BDA
:1050C000FBF7BCFBC4E9120194ED120BBDEC088B9D
:1050D00070BD000000000020000000A046DF913FEE
:1050E00000000020DCA54C40000000000000000093
:1050F000000000000080764010B52DED048BB0EE6E
:10510000408A18EE100AFBF732FD41EC100B9FEDC0
:10511000111BFEF7CBFB9FED111A51EC100BC8EEE3
:10512000011ABDEEE11AB8EEC18A9FED0D1B53ECDA
:10513000112BFBF79CFC41EC190B18EE100AFBF746
:1051400016FD53EC192BFBF779FBBDEC048B41ECFE
:10515000100B10BD00000000000059400000C842C4
:105160000000000000004E4010B52DED0A8BB0EE9F
:1051700043BAF0EE63BAB0EE429AF0EE629AB0EE45
:1051800041CAF0EE61CAB0EE40AAF0EE60AA9FED0F
:10519000728B51EC1A0B53EC182BFBF7F6FBFBF759
:1051A00011FD6F4C53EC182BA06151EC190BFBF760
:1051B000ECFBFBF707FDE06153EC192B51EC1A0BEC
:1051C000FBF7E0FB53EC182BFBF7DFFBFBF7FAFCDC
:1051D000206253EC1C2B51EC1B0BFBF7D0FB53EC68
:1051E000182BFBF7D2FBFBF7EDFC00EE100AB6EE36
:1051F000008A84ED090A20EE080A10EE100AFBF777
:10520000B6FC41EC100BFEF7D3FBB0EE409A94EDE8
:10521000090AF0EE609A20EE080A10EE100AFBF779
:10522000A6FC41EC100BFEF7C3FBB0EE40AAF0EE7B
:1052300060AAE069FBF79BFC41EC100BFEF7C8FA93
:10524000B0EE40BAF0EE60BAA069FBF790FC41EC1A
:10525000100BFEF7BDFAB0EE401AF0EE601A53ECF8
:105260001B2B51EC110BFBF790FB53EC1A2BFBF7AC
:105270008CFB53EC192BFBF788FB94ED080A41ECEF
:10528000190B20EE080A10EE100AFBF770FC41EC37
:10529000100BFEF78DFBB0EE40AA94ED080AF0EE7D
:1052A00060AA20EE080A10EE100AFBF760FC41EC41
:1052B000100BFEF77DFBB0EE401AF0EE601A53ECD7
:1052C0001A2B51EC110BFBF760FB53EC192BFBF77E
:1052D000B5FAFBF777FC00EE100AF7EE000A84ED52
:1052E0000A0A30EEC00A10EE100AFBF740FC41EC4F
:1052F000100BFEF7C1FBB0EE408AF0EE608AA06AA8
:10530000FBF735FC41EC100BFEF7B6FBB0EE481A8C
:10531000F0EE681AFEF764F99FED121B51EC100BCA
:1053200053EC112BFBF731FB41EC100B9FED0F1BE6
:1053300084ED160B53EC112BFBF727FB9FED0D1B98
:1053400053EC112BFBF721FB41EC100B84ED140BFC
:10535000BDEC0A8B10BD0000000000A046DF913FAD
:1053600000000020000000000000004000000000DD
:1053700000E3B8400000000000408F4082B0CDE95B
:10538000000121F0004001909DED000B02B051ECB6
:10539000100B70470D4810B5D0ED0E0A90ED0B1AAA
:1053A000F7EE001A70EEC00A80ED0E0AF0EEE00A89
:1053B00061EE200A31EEC11A41EE000A10EE900AA9
:1053C000FBF7D5FB41EC100B10BD000000000020E6
:1053D0002DED068B82B0FCF775FBFDF75BFBA0485B
:1053E0000024016841F080010160016801F0800142
:1053F0000091016841F001010160016801F00101C3
:105400000091016841F004010160016801F00401AC
:105410000091016841F480010160016801F480019C
:105420000091016841F4001101600068002200F45D
:105430000010009011461020FCF7CCFB1020FCF768
:10544000BDFB002211463A20FCF7C4FB3A20FCF7D2
:10545000B5FB854883494FF416560160C0E90164E5
:105460000C25C460C0E904458461C461FDF7B8F847
:1054700000B1FEE77C487D4940300160C0E901642D
:10548000C460C0E904458461C461FDF7A9F800B1B6
:10549000FEE775487649803001604FF4E131C0E99C
:1054A0000114C460C0E904458461C461FDF798F843
:1054B00000B1FEE7FDF780FAFDF7A6FA6A48FBF7B0
:1054C000FBFF69491522903901F1D000FDF764F91D
:1054D00065494FF47A74C03123461122A1F140008E
:1054E000FDF70BFA6420FCF7F5F95F492346D1314B
:1054F0001522A1F19100FDF700FA5B487838FCF71E
:10550000A9FEA0465B4D5C4C4FF4FA6995ED840A08
:1055100084ED030A95ED860B51EC100BFBF752FB63
:10552000A06095ED890A064684ED050A95ED8A0B83
:1055300051EC100BFBF746FB07462061E069FBF7D7
:1055400016FB41EC1A0BA069FBF711FB41EC190BA0
:105550003846FBF70CFB41EC180B3046FBF707FB1A
:1055600041EC100BB0EE4A3AF0EE6A3AB0EE492A3E
:10557000F0EE692AB0EE481AF0EE681AFFF7C4FCA4
:1055800084ED0C0BE069FBF7F2FA41EC1A0BA06911
:10559000FBF7EDFA41EC190B2069FBF7E8FA41EC57
:1055A000180BA068FBF7E3FA41EC100BB0EE4A3A97
:1055B000F0EE6A3AB0EE492AF0EE692AB0EE481AE7
:1055C000F0EE681AFFF7D0FD84ED0A0B94ED060AA1
:1055D000B5EEC00AF1EE10FA14D094ED070AB5EE5C
:1055E000C00AF1EE10FA0DD094ED030AB5EEC00A30
:1055F000F1EE10FA06D094ED050AB5EEC00AF1EE10
:1056000010FA09D19FED1D0B84ED0C0B84ED0A0BF4
:1056100084ED0E0B84ED100B2069FBF7A8FA06460B
:105620000F46A068FBF7A3FA41EC100B0E4853ECB1
:10563000102B14A1D130CDE90067FDF739FE0A48DF
:10564000D130FAF712FE084982B2D1314346A1F1B6
:105650009100FDF752F94846FCF73CF956E7000087
:105660003038024000100140A003002000440040F8
:1056700000140140C0000020600000200000000075
:1056800000000000252E366620252E36660D0A0005
:1056900000061016000610160000000000000000B2
:1056A00001020304060708090000000001020304C8
:1056B0004FBB610567ACDD3F182D4454FB21E93F2A
:1056C0009BF681D20B73EF3F182D4454FB21F93F19
:1056D000E2652F227F2B7A3C075C143326A6813C9F
:1056E000BDCBF07A8807703C075C143326A6913C4A
:1056F000C4EB98999999C9BF711623FEC671BCBFB6
:105700006D9A74AFF2B0B3BF9AFDDE522DDEADBF1D
:105710002F6C6A2C44B4A2BF0D5555555555D53F35
:10572000FF8300922449C23F6E204CC5CD45B73F50
:10573000513DD0A0660DB13FEB0D76244B7BA93FC8
:1057400011DA22E33AAD903F4C5555555555A53FDA
:105750007751C1166CC156BF9015CB19A001FA3E06
:10576000AD529C804F7E92BEC4B1B4BD9EEE213E30
:10577000D43888BEE9FAA8BD00000000000000008F
:1057800000004054FB21F93F3163621A61B4D03DFF
:105790000000601A61B4D03D7370032E8A19A33BD8
:1057A0000000002E8A19A33BC14920259A837B392A
:1057B00000000000000000006E83F9A22915444E8D
:1057C000D15727FCC0DD34F5999562DB4190433C0D
:1057D000AB6351FE61C5BBDE3A6E24B7E0D24D42E9
:1057E000EA2E49061C92D1091CEB1DFE3EA729B1E9
:1057F000F53582E88444BB2E26709CE9417E5FB477
:1058000039D69139F43953838B5F849C3B28F9BD99
:10581000FF97F81F0F9805DE8B112FEF1F6D0A5AA7
:10582000CF7E366DB709CB27663F464F2DEA5F9E88
:10583000C7BA27757BF1E5EBF739073DEA92528A43
:10584000B15FFB6B085D8D1FA6F810111111813F30
:10585000D561C119A0012ABF7DFEB157E31DC73E26
:10586000EB9C2B8AE6E55ABE7CD5CF5A3AD9E53D6A
:10587000DDDDDDDDDCBBBBDDDDDDDDDDDDDDDDDD9D
:1058800098888888888888887777777777888888DD
:105890008555555666666666666666666668888875
:1058A0008333333222222222222222222228888D6E
:1058B00024474E4747412C25326868642532686882
:1058C0006425326868642E253368642C25662C258F
:1058D000632C25662C25632C256868642C25686854
:1058E000642C25662C25662C25632C2568642C25C4
:1058F000732C2A2532730D0A000000001C59000881
:1059000000000020BC00000030430008D859000807
:10591000BC000020CC09000040430008000000004B
:105920000000000000000000000000000000000077
:105930000000000000000000000000000000000067
:1059400000000000000000000AD7A33C0000000097
:105950000000000000000000000000000000000047
:105960000000000000000000000000000000000037
:1059700000000000000000000000000030000000F7
:105980000000000000000000000000000000000017
:105990000000000000000000000000000000000007
:1059A00000000000000000000000000000000000F7
:1059B00000000000000000000000000000000000E7
:1059C00000000000010000001000000000000000C6
:0859D0000024F40000000000B7
:040000050800018965
:00000001FF
