:020000040800F2
:10000000580A00209D0100081B440008A72B000887
:1000100019440008470F0008994C00080000000030
:100020000000000000000000000000003F44000845
:10003000DD0F0008000000003D44000841440008B6
:10004000B7010008B7010008B7010008B7010008B0
:10005000B7010008B7010008E10F00087D10000893
:10006000B701000811110008A5110008B701000828
:10007000490F0008B7010008B7010008B7010008E0
:10008000550F0008B7010008B7010008B7010008C4
:10009000B7010008B7010008B701000839120008CD
:1000A000B7010008B7010008B7010008B701000850
:1000B000414500088D450008B7010008B701000858
:1000C000B7010008B7010008B7010008B701000830
:1000D000B7010008B7010008B70100088D4C0008FF
:1000E00075100008B7010008B7010008B701000843
:1000F000B7010008B7010008B7010008B701000800
:10010000B7010008B7010008B7010008B7010008EF
:10011000B7010008B7010008B7010008B7010008DF
:10012000B7010008B7010008B7010008B7010008CF
:10013000B7010008B7010008B7010008B7010008BF
:10014000B7010008B7010008B7010008B7010008AF
:10015000B7010008B7010008B7010008B70100089F
:10016000B7010008B7010008B7010008B70100088F
:10017000B7010008B7010008B7010008000000003F
:10018000B7010008B7010008DFF80CD000F0EEFC62
:100190000048004751510008580A0020064880478F
:1001A00006480047FEE7FEE7FEE7FEE7FEE7FEE75C
:1001B000FEE7FEE7FEE7FEE7ED44000889010008E0
:1001C0002DE9F05F0546002092469B46884606468C
:1001D000814640241BE0284641464746224600F01F
:1001E0008EFB53465A46C01A914110D31146184609
:1001F000224600F075FB2D1A67EB01084F46224698
:100200000120002100F06CFB17EB00094E41201E7D
:10021000A4F10104DFDC484631462A464346BDE8E6
:10022000F09FD2B201E000F8012B491EFBD27047CB
:100230000022F6E710B513460A4604461946FFF7B2
:10024000F0FF204610BD00000FB400B58DB010A91E
:1002500009900B9000914FF0FF300A9000200C9015
:1002600005480690054807906A4609A80F9900F0CE
:100270005DFB0DB05DF814FB490900086709000833
:100280002DE9FF5FD2E901A74FF000089169994677
:100290001446DDF838B0464601988847054659EAC5
:1002A0000B0005D009E0A169761C01988847054636
:1002B000216A284688470028F5D1681C03D05FEAE8
:1002C000CA7005D015E04FF0FF3004B0BDE8F09FD4
:1002D0002068011D2160D0F800800AE05FEACA7042
:1002E00001D108F8015BA169761C7F1E019888473F
:1002F0000546002F1ADD681C18D0B9F1000F0DD08B
:10030000E81705EBD060421120F01F0059F82210C9
:100310002A1A012090400142E0D107E0BBF1000F12
:10032000DCD1216A284688470028D7D0E1690198A6
:100330008847BBF1000F07D1002E05DD5FEACA70C8
:1003400002D1002188F80010A068B84203DDBBF19B
:10035000000F03D017B16FF00100B6E73046B4E7E5
:100360002DE9FF4F087883B09946FF2805D0491C36
:100370002D2804D00024002008E000200BE00124F8
:10038000F9E700EB800003EB4000491C0B78FF2BE2
:10039000F7D104B1404200230293147819461D4658
:1003A0002D2C01D02B2C04D1521C2D2C13D0002429
:1003B0000294AA461478FF2C0FD00A25A3FB0578D7
:1003C00001FB05814FF0000C03FB0C11521CE319DB
:1003D0004AEB0101EEE70124EAE7814453EA010018
:1003E00002D019F5C87F06DA03980021C0E9001190
:1003F00007B0BDE8F08F0025AE4E2F46DFF8B8827B
:10040000184600F0A6FBCDE90001B9F1000002DAC0
:10041000C9F1000400E004460023A74A1AEB030BCD
:1004200042EB045A12E0E00707D02A46334638462A
:10043000414600F045F9074688462A4633461046AD
:10044000194600F03DF905460E466410002CEAD12D
:10045000DDE90001B9F1000F5A46534606DA00F013
:10046000A1F93A46434600F09DF905E000F028F96D
:100470003A46434600F024F9029A0AB181F000415D
:10048000039AC2E90001B3E72DE9FF4F1F468DB083
:10049000D7E901464FF0FF382E2045464FF00009BE
:1004A0000B90B9696D1C0E988847396A8246884757
:1004B0000028F6D1BAF1FF3F0AD024F4D064002E10
:1004C00011DDBAF12B0F08D0BAF12D0F0BD102E0DC
:1004D000404611B08DE744F48064B9696D1C0E98F4
:1004E00088478246761E6946600501D52D2000E0CA
:1004F0002B208DF8000001F1010B0DF1200809E01F
:10050000B9696D1C0E98884782460F9844F40074B0
:10051000761E0560002E02DDBAF1300FF0D00B9987
:100520008A453ED144F0800406E00F99681CA9F189
:10053000010944F400740860B9696D1C761E0E98B8
:10054000884782463028F0D02BE00B998A4505D1A8
:10055000200603D444F08004761E18E0504604F0D0
:10056000D9FD08B30DF11301761E44F400748B45D8
:1005700008D2AAF130000BF8010B200607D5A9F12B
:10058000010003E0200602D409F101008146A00524
:1005900002D50F99681C0860B9696D1C0E988847D0
:1005A0008246002ED1DC53E0002E51DDBAF1650FFA
:1005B00002D0BAF1450F4BD1A00549D5B9696D1CE0
:1005C00024F44074761E0E9888478246002E0CDD77
:1005D0002B2804D0BAF12D0F07D144F48074B969E7
:1005E0006D1C0E9888478246761EE00501D52D21A8
:1005F00000E02B2108F8011BCDF82C8021E00DF143
:100600002901761E44F4007488450CD2AAF130000A
:1006100010F0FF0088F8000002D10B99884509D935
:1006200008F1010806E0E00501D5244801E042F2A6
:100630000F708146B9696D1C0E98884782460F98E5
:100640000560002E04DD504604F064FD0028D6D17C
:10065000F9690E988847FF208BF8000088F80000A1
:100660000020069007904B466A4608A906A8FFF7A7
:1006700077FEA00502D46FF001002AE714F0240FE2
:100680000AD0E00714D1DDE906123868031D3B608B
:100690000068C0E900120BE0DDE9060100F004F992
:1006A0000146E00704D13868021D3A600068016025
:1006B00028460EE7000014400000F03FF1D8FFFF8D
:1006C0002DE9FE4F81EA030404F0004421F00041CB
:1006D00000944FF0000B23F0004350EA01045ED079
:1006E00052EA03045BD0C3F30A54C1F30A552C4405
:1006F000A4F2F3340194A0FB0254C1F3130141F4BA
:100700008011C3F3130343F4801301FB024400FB85
:10071000034E840A970A44EA815447EA8357A4FBAC
:10072000076802958D0A05FB07854FEA932C04FBA9
:100730000C542705029D4FEA065847EA1637B5EBD9
:1007400008056EEB070C870E920E47EA811742EA06
:100750008312A7FB0201B6EB0B0164EB00042B0D27
:1007600043EA0C335E1844EB1C50DA465146E7FB73
:100770000201C5F313044FEA0B3343EA14534FEA63
:100780000432019C43EA0603A4F10C040294009C89
:10079000CDE900B400F03EF903B0BDE8F08F0020D1
:1007A0000146F9E72DE9F04D81EA030404F0004B1E
:1007B00021F0004514464FF0000A23F0004150EAB2
:1007C000050220D054EA01021DD0C5F30A570246A3
:1007D000C5F31303C1F31300C1F30A5640F48015A7
:1007E00043F48013A7EB0608101BD64608F2FD3829
:1007F00073EB050002D308F1010801E092185B4198
:10080000B8F1000F03DA00200146BDE8F08D0020AA
:100810004FF48011064684460EE0171B73EB050764
:1008200005D3121B63EB050306434CEA010C490890
:100830004FEA300092185B4150EA0107EDD152EACD
:10084000030012D082EA040083EA0501084305D0C0
:10085000101BAB4106D20122002306E000224FF01C
:10086000004302E06FF0010253101AEB06004CEB5C
:10087000085110EB0A0041EB0B01BDE8F04D00F010
:10088000BAB800F0004230F000400AD0C10D01F5C6
:100890006071C0F3160042EA0151C20840071143DB
:1008A000704700200146704701F0004330B421F04A
:1008B000004150EA010206D00A0DA2F56072C1F3B0
:1008C0001301002A02DC30BC00207047440F44EAC8
:1008D000C104C100E01830BC00EBC25000F054B8B5
:1008E000202A04DB203A00FA02F1002070479140F0
:1008F000C2F1200320FA03F3194390407047202AE5
:1009000004DB203A21FA02F00021704721FA02F3B9
:10091000D040C2F1200291400843194670470000C0
:10092000026811441378016018467047D160044989
:1009300051610449116200211161114600F02EB984
:1009400021090008910B0008426842B1016811F8C2
:10095000013B23B1521EC0E9001218467047012125
:10096000C160881E704742685AB1C368016843B9C4
:1009700083688B4205D0491E521CC0E9001200203A
:1009800070474FF0FF3070470029A8BF7047401CE8
:10099000490008BF20F00100704710B4B0FA80FC95
:1009A00000FA0CF050EA010404BF10BC704749B1D2
:1009B000CCF1200421FA04F411FA0CF118BF012142
:1009C00021430843A3EB0C01CB1D4FEA00614FEA22
:1009D000102042BF002010BC704700EBC3501044F1
:1009E0000029A4BF10BC7047401C490008BF20F07C
:1009F000010010BC704710B5141E73F1000408DA32
:100A0000401C41F1000192185B411A4301D120F0D2
:100A1000010010BD2DE9F04D92469B4611B1B1FA8F
:100A200081F202E0B0FA80F220329046FFF758FFE0
:100A300004460F4640EA0A0041EA0B0153465A4673
:100A4000084313D0114653EA010019D0C8F14002FF
:100A50005046FFF754FF05460E465046594642465B
:100A6000FFF73EFF084305D0012004E02046394649
:100A7000BDE8F08D0020054346EAE0762C4337437D
:100A80000A986305E40AA0EB08000022FD0A44EA84
:100A900047540A3002D500200146E9E70105101944
:100AA0006941DDE9084500196941BDE8F04DA2E75B
:100AB0002DE9F04D00231A461B1A8A4103DB002062
:100AC0000146BDE8F08DC1F30A52C1F3130141F4B0
:100AD00080154FF0000BD10702D100186D41521E56
:100AE0000027044640F2FF11384601EB620A3E46F9
:100AF0008046024600204FF48011FFF700FFC21924
:100B00007141BB1846EB0100B4EB030C75EB000C14
:100B100004D3E41A65EB000517460E46241908F1C4
:100B200001006D4180463428E3DDF91946EB0600EB
:100B3000091BA84103D24FF0FF32134601E0002207
:100B400013461BEB070046EB0A51BDE8F04DFFF7DB
:100B500052BF0EB540F2334202920022CDE900228C
:100B60001346FFF757FF03B000BD0000064C074DCA
:100B700006E0E06840F0010394E80700984710346D
:100B8000AC42F6D3FFF704FBA4530008C45300089B
:100B9000C0B24FF4F05100F097B900002DE9F34FC7
:100BA0008BB04FF0000801F10C000C464FF0010B28
:100BB00046460DF1080A01906269012101989047AB
:100BC000051E2DD0252D2CD0216A8847C0B1626921
:100BD000012101989047216A88470028F7D1411EDA
:100BE00062690198904700E0761CA1690B988847DC
:100BF000216A88470028F7D1E1690B988847DBE72D
:100C0000A1690B9888470746A84201D1761CD3E713
:100C1000E1690B9888477F1C02D1B8F1000F6FD0B3
:100C200046E1002762693D463946019890472A28E7
:100C300004D162690121019890470125DFF884926F
:100C40006269012101989047A0F130010A290AD276
:100C50004F45E5DC07EB870100EB4107303FDFD470
:100C600045F01005ECE7E90601D46FF000476C2869
:100C70000AD04C2814D0682815D06A280DD07428C2
:100C80001CD07A281AD01DE0626901210198904792
:100C90006C2802D045F0040514E045F002050DE093
:100CA00045F020050AE06269012101989047682813
:100CB00002D045F0080505E045F4006562690121B0
:100CC00001989047C4E9015765283DD019DC5828A0
:100CD0007AD00CDC452837D004DC252826D04128E2
:100CE00031D131E046282FD047282CD12CE05B2889
:100CF00077D0612828D063287CD0642823D15AE09B
:100D0000D0E06F2848D008DC66281DD067281BD0AB
:100D1000692821D06E2816D127E0702845D0732885
:100D200068D0752847D078280DD14DE0A1690B987F
:100D30008847054625283FF469AFE1690B98884745
:100D40006D1C3FF46AAFB3E023466A466FF00100C2
:100D50000B99FFF799FB9EE045F040006060A80703
:100D600023464FF0000236D43EE0E8077FF447AF59
:100D70002068011D21600068290501D506701BE768
:100D8000290701D5068017E7A90703D5F117C0E9A0
:100D9000006111E706600FE745F040006060A807BA
:100DA00023464FF0080216D41EE040F60E0125EA55
:100DB0000100606016E045F040006060A80723462F
:100DC0004FF00A0207D40FE045F040006060A8072A
:100DD00008D5234610226FF001000B99AFF3008075
:100DE00059E007E0234610226FF001000B99AFF3A2
:100DF000008050E04FF000094F464B46632802D078
:100E00005B2806D040E0E80601D40120A06001275D
:100E10003AE062690121019890475E2805D14FF0C0
:100E200001096269494601989047216939B9002151
:100E30000A46534643F82120491C0829FADBB0B37F
:100E4000216969B9C11700EBD16253110AEB830123
:100E500022F01F02821A01200B68904003430B60AE
:100E600062690121019890475D28E8D1B9F1000F2E
:100E700009D00020514651F82020D24341F82020CB
:100E8000401C0828F7DB02AB224600976FF00100F8
:100E90000B99FFF7F5F900280CDA401C08D1BBF1DB
:100EA000000F05D04FF0FF300DB0BDE8F08FFFE729
:100EB0004046F9E7E90701D108F1010806444FF07F
:100EC000000B79E6CCCCCC0C7F2801D9002208E0BD
:100ED000064A02EB5002C007127800D1120902F054
:100EE0000F02012090400840704700006253000844
:100EF00070B58C1810F8015B15F0070301D110F8DC
:100F0000013B2A1106D110F8012B03E010F8016B08
:100F100001F8016B5B1EF9D12B0705D40023521E8B
:100F20000DD401F8013BFAE710F8013BCB1A921CF3
:100F300003E013F8015B01F8015B521EF9D5A142F1
:100F4000D8D3002070BDFEE7014800F097B900003B
:100F5000F8050020014800F091B900009805002034
:100F600001681823CAB2103AB2FBF3F2054B6FF3D3
:100F70000901032A9B5CC36500D9091D81650846E8
:100F8000704700004253000810B5014600208B69ED
:100F90008A6A4FF0C07453B1B3F5005F15D072B1D7
:100FA000012A0CD0022A0AD0032A09D104E01AB17E
:100FB000012A06D0022A03D1C96AC90100D501203D
:100FC00010BDC96AA142FAD010BD002AF7D0012A8B
:100FD000F2D0022AF3D0032AF3D010BD70470000EC
:100FE0002DE9F041214F0121384600F079FB012520
:100FF00000261F4C012819D026710221384600F026
:101000006FFB012814D066716079217840EA4100B5
:10101000217941EA400010F0030020700AD0012835
:1010200017D0022819D003280DD11AE02571E4E762
:101030006571E9E7A179012902D12169491C01E023
:101040002169491E2161A071BDE8F041012000F035
:1010500063BAA1790329F3D1EFE7A1790029EFD190
:10106000EBE7A1790229EBD1E7E70000000C024091
:10107000100100204FF4806000F04EBA2DE9F041DD
:10108000214F0121384600F02BFB012500261F4C83
:10109000012819D026710221384600F021FB0128D1
:1010A00014D066716079217840EA4100217941EAE3
:1010B000400010F0030020700AD0012817D0022849
:1010C00019D003280DD11AE02571E4E76571E9E72D
:1010D000A179012902D12169491C01E02169491E38
:1010E0002161A071BDE8F041022000F015BAA1799C
:1010F0000329F3D1EFE7A1790029EFD1EBE7A1793B
:101100000229EBD1E7E70000000C024010010020AB
:101110002DE9F041214F0821384600F0E1FA012580
:1011200000261F4C012819D0A6701021384600F067
:10113000D7FA012814D0E670A078617840EA41001F
:10114000E17841EA400010F0030060700AD0012805
:1011500017D0022819D003280DD11AE0A570E4E7B2
:10116000E570E9E7E179012902D1E168491C01E074
:10117000E168491EE160E071BDE8F041082000F03F
:10118000CBB9E1790329F3D1EFE7E1790029EFD178
:10119000EBE7E1790229EBD1E7E70000000C024020
:1011A000100100202DE9F041214F0821384600F0C0
:1011B00097FA012500261F4C012819D0A67010218E
:1011C000384600F08DFA012814D0E670A0786178D6
:1011D00040EA4100E17841EA400010F0030060700D
:1011E0000AD0012817D0022819D003280DD11AE0FF
:1011F000A570E4E7E570E9E7E179012902D1E1684A
:10120000491C01E0E168491EE160E071BDE8F04180
:10121000102000F081B9E1790329F3D1EFE7E179FA
:101220000029EFD1EBE7E1790229EBD1E7E70000F4
:10123000000C0240100100204FF4807000F06CB9E7
:10124000034A0021A2F800120122024901F04EBC1B
:10125000700100207203002090F83510022903D09D
:101260008021416501207047052180F83510006814
:10127000016821F001010160002070472DE9F84369
:1012800004464FF00009CDF8009063484FF4165122
:10129000A56D0068B0FBF1F72E6894F85C1008208B
:1012A00000FA01F131420FD021680A6852070BD5CC
:1012B0000A6822F004020A6094F85C108840A86072
:1012C000606D40F00100606594F85C104FF001081B
:1012D00008FA01F0304208D021684969090604D5AE
:1012E000A860606D40F00200606594F85C10042016
:1012F0008840304208D021680968890704D5A86071
:10130000606D40F00400606594F85C101020884027
:10131000304218D021680968090714D5A8602068F0
:101320000168490304D50068000308D5A16C07E0F3
:101330000168C90503D4016821F008010160216C2E
:1013400009B12046884794F85C102020884030423C
:1013500031D021680968C9062DD5A86094F83500F8
:1013600005282068016806D0490347D500680003B6
:101370001DD4616C1CE021F01601016020684169F8
:1013800021F080014161206C08B9A06C20B1206877
:10139000016821F00801016094F85C103F2088404A
:1013A000A86084F8349084F83580216D1FE0E16BEB
:1013B00009B120468847606D00282BD0606DC007BA
:1013C00014D0052084F835002068016821F001015F
:1013D00001600098401C0090B84203D82068006863
:1013E000C007F6D184F8349084F83580E16C002988
:1013F00010D001B02046BDE8F04308470168C90598
:10140000D5D4016821F01001016084F8349084F88B
:101410003580CCE7BDE8F883500100202DE9F0418C
:10142000044600F067F906465CB1002584F83450A4
:10143000022084F835002068016821F00101016074
:101440000DE00120BDE8F08100F054F9801B052873
:1014500005D920206065032084F83500F2E7206874
:101460000068C007F0D12268116820480140D4E923
:1014700001031843D4E9033633431843636918431F
:10148000A3691843E3691843236A18430843616A50
:10149000042903D1D4E90B131943084310602068D1
:1014A0004069666A20F0070130460E430127042890
:1014B0000CD1A06A0643E06A40B12046FFF764FD04
:1014C00020B14020606584F83570BAE72068466135
:1014D0002046FFF745FD94F85C203F219140816054
:1014E000656584F835700020ACE700003F8010F09F
:1014F00070B5044600F0FEF80546601C02D00448B2
:101500000078044400F0F6F8401BA042FAD370BD06
:101510004401002070470000044910B50A680242E7
:1015200002D00860FFF7F6FF10BD0000143C014038
:101530002DE9F84FDFF87CB100224FF001084FF0A1
:10154000030A4FF00F090BF1040E00BF0B6808FAF5
:1015500002F42340A3426ED14D68022D01D0122D1A
:101560000ED1D50800EB850CDCF820505607F70E9D
:1015700009FA07F6B5430E69BE402E43CCF8206049
:10158000066855000F790AFA05FC07F0030726EAFA
:101590000C06AF40374307604E68012E05D0022E7F
:1015A00003D0112E01D0122E0ED18668CF6826EA04
:1015B0000C06AF40374387604668A6430C79C4F3F6
:1015C0000014944034434460C6688C6826EA0C06D4
:1015D000AC403443C4604C68E40065D5364C2568A3
:1015E00045F480452560246822F0030504F4804416
:1015F0000094324C2E19D6F8084895072F0F09FA97
:1016000007F5AC432E4DA84201D1002524E02D4D15
:10161000A84201D101251FE02B4DA84201D102258E
:101620001AE02A4DA84201D1032515E0284DA84211
:1016300002D1042510E037E0264DA84201D105254E
:101640000AE0254DA84201D1062505E0234DA84218
:1016500001D1072500E00825BD402543C6F80858FC
:10166000DBF800405D464E689C43F60300D51C4302
:101670002C60DEF8004075464E689C43B60300D5EA
:101680001C432C600B4D08352C684E689C43F602B9
:1016900000D51C432C60074D0C352C684E689C43CC
:1016A000B60200D51C432C60521C102AFFF44EAF2A
:1016B000BDE8F88F003C0140443802400030014052
:1016C000000002400004024000080240000C0240FA
:1016D000001002400014024000180240001C0240AA
:1016E0000069084000D0012070470AB1816170474D
:1016F0000904FBE7014880687047000044010020AE
:1017000070B5040004D094F83D00002510B106E047
:10171000012070BD84F83C50204600F005FA2420DA
:1017200084F83D002068016821F00101016000F0AB
:1017300081FB33492268B0FBF1F15160314A6368A3
:10174000934206D94FF4967359434FF47A73B1FB21
:10175000F3F12368491C1962616891420BD8490072
:10176000B0FBF1F2C2F30B02042A01D2042019E00B
:10177000B0FBF1F016E0A3689BB301EBC10202EBF2
:101780000112B0FBF2F242F48042120530D04BB3AA
:1017900001EBC10202EB0111B0FBF1F040F480401B
:1017A00040F400402168C861D4E90701084321687A
:1017B0000860D4E90310084321688860D4E9050172
:1017C00008432168C8602068016841F00101016098
:1017D0002564202084F83D00256384F83E500020D5
:1017E00070BD00E006E001EB4102B0FBF2F2CCE795
:1017F0000120D7E701EB4101B0FBF1F0D0E7000099
:1018000040420F00A08601002DE9F84F1F46904688
:101810008A460446DDF82890FFF76CFF054694F8E9
:101820003D0020286FD1192301226E4920460095E2
:1018300001F0AFFA0028F5D194F83C00012862D0FD
:10184000012084F83C0020680168C90703D10168C1
:1018500041F0010101602068016821F4006101602C
:10186000222084F83D00102084F83E0000262664E3
:10187000C4F8248067855C48E062608D20852B4633
:101880004A465146204601F0A3F928B1206C84F85D
:101890003C60042841D04DE0208D544F68B10128B0
:1018A00014D002282068016816D041F480610160DC
:1018B000206841698069009085E0206841698169FC
:1018C0000091016841F4007101607CE020680168CA
:1018D00021F480610160F0E721F4806101602068FB
:1018E000016841F40061E2E7032849D801280BD0E0
:1018F000022817D04B46002239462046009501F0B9
:1019000048FAB8B92AE06AE02A464946204601F07A
:10191000B5FA28B1206C20280CD00120BDE8F88F42
:10192000206845E04B46002239462046009501F0EC
:1019300030FA08B10320F1E72068016841F4007132
:10194000016020680169606A421C62620170208D3A
:10195000401E2085608D401E6085E1E7206801689B
:1019600021F48061016020680169606A421C626242
:101970000170208D401E2085608D401E6085D1E75E
:101980002A464946204601F079FA0028C2D120684B
:101990000269606A411C61620270208D401E2085D0
:1019A000608D401E608520684169C94349070AD49B
:1019B0000169606A421C62620170208D401E2085B0
:1019C000608D401E6085208D00288DD1202084F8F8
:1019D0003D0084F83E6084F83C6000209EE70220D1
:1019E0009CE70000020010000000FFFF040001005F
:1019F0002DE9F84F1F4690468A460446DDF82890A8
:101A0000FFF778FE064694F83D0020287ED1192382
:101A1000012243492046009601F0BBF900287DD100
:101A200094F83C00012879D0012084F83C0020681B
:101A30000168C90703D1016841F001010160206814
:101A4000016821F400610160212084F83D0010202C
:101A500084F83E0000252564C4F824806785314859
:101A6000E062608D208533464A465146204601F0AB
:101A70001FF928B1206C84F83C5004284CD00DE0AC
:101A8000206841698069009030E03246494620462E
:101A900001F025FA28B1206C042838D00320BDE8D5
:101AA000F88F606A411C6162216800780861608D6E
:101AB000401E6085208D401E80B2208521684A69C5
:101AC000D24352070BD450B1606A421C6262007864
:101AD0000861608D401E6085208D401E2085324645
:101AE0004946204601F02EF90028D4D1208D002847
:101AF000CBD154F83D0B016841F400710160202006
:101B000004F81E09E57765770020C8E706E020683D
:101B1000016841F4007101600120C0E70220BEE7C6
:101B2000020010000000FFFF00B500680E4987B0FA
:101B3000884216D1C020009012200190012002900E
:101B4000032003900420049069460848FFF7F0FC46
:101B50000748016841F400110160006800F40010BA
:101B6000059007B000BD0000005400400004024092
:101B70004038024002488168027811448160704711
:101B8000440100200B4810B5016841F40071016068
:101B9000016841F480610160016841F48071016075
:101BA000032000F097F8002000F006F800F024F879
:101BB000002010BD003C024070B50D4D04464FF4AE
:101BC0007A712878B1FBF0F00A490968B1FBF0F0AE
:101BD00000F01BFB48B9102C07D200222146501EF2
:101BE00000F058F800206C6070BD012070BD00004E
:101BF00044010020500100201F4808B5016841F44D
:101C000080410160006800F4804000901A48001F85
:101C1000016841F080510160006800F08050009040
:101C2000032000F057F8002211466FF00B0000F07F
:101C300031F8002211466FF00A0000F02BF8002264
:101C400011466FF0090000F025F800221146501FE0
:101C500000F020F800221146101F00F01BF80022AF
:101C60001146901E00F016F80022BDE8084011460B
:101C7000501E00F00FB800004438024000F01F0270
:101C8000012191404009800000F1E020C0F80011DE
:101C900070470000F0B40E4B1B680C46C3F30223E0
:101CA000C3F10705042D00D90425191D072901D208
:101CB000002300E0DB1E012606FA05F1491E214043
:101CC00099409E40761E16403143F0BC02F0A6BB00
:101CD0000CED00E0064900F0070208684FF6FF032C
:101CE000184040EA0220034A104308607047000091
:101CF0000CED00E00000FA052DE9F0470E46050066
:101D000065D0DFF81481D8F80000F7B200F00F00BA
:101D1000B04207D288F80070D8F8000000F00F0039
:101D2000B04254D128683D4C810712D5400703D5F5
:101D3000206840F4E05020602878000703D5206830
:101D400040F4604020602068A96820F0F00008435B
:101D500020602878C0072DD03049686808390128EC
:101D600012D0022813D0032811D00968890700294E
:101D70002DDA216821F0030101432160FFF7BAFC4D
:101D8000814641F2883A0EE009688903EFE7096865
:101D90008901ECE7FFF7AEFCA0EB0901514502D940
:101DA0000320BDE8F0872068696800F00C00B0EB04
:101DB000810FEFD1D8F80010404601F00F01B14279
:101DC00007D90770006800F00F00B04201D0012071
:101DD000E7E72878400705D52068E96820F4E05057
:101DE000084320602878000706D52068296920F478
:101DF000604040EAC100206000F03CF82168084AD9
:101E0000C1F30311515CC840064908600020FFF788
:101E1000D3FE0020C5E70000003C02400838024025
:101E20004A53000850010020014800687047000034
:101E3000500100200448054900680968044AC1F3BC
:101E40008221515CC8407047500100200838024090
:101E50005A5300080448054900680968044AC1F358
:101E60004231515CC84070475001002008380240A0
:101E70005A530008154810B5006810F00C021448B9
:101E800013D04110042A0FD0082A0ED10F4C241F62
:101E90002268236802F03F025B0207D52068C0F386
:101EA0008810A0FB010106E0084610BD2168C1F3BF
:101EB0008811A1FB00010023FEF782F92168C1F31C
:101EC0000141491C4900B0FBF1F010BD0838024047
:101ED0000024F4002DE9F84F050076D02878DFF8CB
:101EE000F8B2BE4CC00749D0DBF800105846C1F329
:101EF0008101012908D00068C0F3810002280AD1BD
:101F0000201D0068400206D52068800336D5686829
:101F10000028E2D032E06868B0F5803F10D0B0F51C
:101F2000A02F206810D020F480302060206820F49A
:101F3000802020606868A0B1FFF7DCFB06460CE05B
:101F4000206840F48030F4E740F480202060F7E718
:101F5000FFF7D0FB801B642873D820688003F7D577
:101F60000CE0FFF7C7FB064605E000BFFFF7C2FB2A
:101F7000801B6428F0D820688003F7D42878DFF825
:101F8000608280074FF000093ED5DBF8001058460C
:101F900011F00C0F09D00068C0F3810002280BD1AA
:101FA0008D48001F0068400206D42068800715D5C0
:101FB000E868012809D111E0E868B8B10120C8F843
:101FC0000000FFF797FB064605E002E1FFF792FBF2
:101FD000801B0228C0D820688007F7D520682969AF
:101FE00020F0F80040EAC10020600DE0C8F8009041
:101FF000FFF780FB064604E0FFF77CFB801B02280E
:102000001FD820688007F7D42878000722D5724EA1
:10201000744869696C3671B101210160FFF76AFB90
:10202000074604E0FFF766FBC01B022809D83068AA
:102030008007F7D50EE0C0F80090FFF75BFB07467E
:1020400005E083E0FFF756FBC01B02287ED830680E
:102050008007F7D42878400768D5DFF87CA10027EF
:102060000AF1380ADAF80000C0000BD4DAF80010E0
:1020700041F08051CAF80010DAF80000012700F0A2
:1020800080500090584E3068C00510D4306840F43D
:1020900080703060FFF72EFB009005E0FFF72AFB11
:1020A0000099401A022851D83068C005F6D54A4E2A
:1020B000A868683601280FD00528306810D020F0B5
:1020C00001003060306820F004003060A868B8B1CA
:1020D000FFF710FB00900FE0306840F00100F4E7DC
:1020E00040F004003060F7E7FFF704FB0099411A65
:1020F00041F28830814264D830688007F4D50EE020
:10210000FFF7F8FA009007E0FFF7F4FA0099411A98
:1021100041F28830814254D830688007F4D42FB11E
:10212000DAF8001021F08051CAF80010A869C0B395
:10213000DBF80010C1F3810102294AD00228484689
:1021400007D0C8F86000FFF7D5FA00E039E005468F
:102150003AE04746C8F86000FFF7CCFA064604E0CC
:10216000FFF7C8FA801B02282BD820688001F7D41B
:10217000D5E907010843A96A1C4A490802EB014155
:102180006A6A41EA8211084395F82C1040EA01611D
:102190001148001F016001203866FFF7ABFA0546C1
:1021A00005E014E0FFF7A6FA401B022809D82068D2
:1021B0008001F7D50BE000BFFFF79CFA401B022817
:1021C00002D90320BDE8F88F20688001F4D40020F4
:1021D000F8E70120F6E70000083802400038024026
:1021E00000004742800E4742007000400000FFFFA1
:1021F0004FF0E0210428086903D020F004000861B2
:10220000704740F00400FAE7704710B5401EB0F187
:10221000807F01D3012010BD4FF0E02460610F21C9
:10222000601702F0FBF80020A06107202061002069
:1022300010BD10B5FFF7E8FF10BD7047704730B50F
:1022400090F83820012A20D0012280F8382002237B
:1022500080F8393003685C6824F070045C600368BF
:102260005C680D682C435C6003689C6824F0800403
:102270009C6003689C6849680C439C6080F8392026
:10228000002180F83810084630BD022030BD10B55E
:10229000040003D094F8390010B107E0012010BD0C
:1022A000002084F83800204600F00CF8022084F862
:1022B0003900211D206802F07BF9012084F83900E3
:1022C000002010BD08B501681448B1F1804F14D04A
:1022D000134A914220D1016841F002010160006877
:1022E000002200F00200009011461D20FFF7D2FCF2
:1022F0001D20BDE80840FFF7C1BC016841F00101A5
:1023000001600068002200F00100009011461C20CE
:10231000FFF7C0FC1C20ECE708BD0000403802407D
:10232000000400400168CA6842F00102CA60006807
:10233000016841F0010101600020704770B504465A
:1023400090F83800012817D0012584F83850022071
:1023500084F839002068826822F0770222F47F42F4
:1023600082600868502837D00DDC202859D005DC61
:1023700088B3102841D151E0022070BD302853D0DD
:1023800040283AD13FE060282ED070280BD0B0F51D
:10239000805F03D0B0F5005F2FD110E02068816826
:1023A00021F0070115E0CB68D1E90121206802F096
:1023B0006AF92168886840F0770088601DE0CB6882
:1023C000D1E90121206802F05EF92068816841F4BA
:1023D0008041816011E01EE0CA684968206802F00F
:1023E0001BFA5021206806E0CA684968206802F09C
:1023F00024FA6021206802F050F984F83950002056
:1024000084F8380070BDCA684968206802F004FA90
:1024100040212068EFE700212068ECE710212068C8
:10242000E9E720212068E6E730212068E3E77047EC
:1024300070B50446006801694FF00005C94389077B
:1024400015D4C168C943890711D4E91E016101206F
:102450002076206880698007204602D0FFF7E7FFDA
:1024600004E000F0B3F8204600F048F92576206833
:102470000169C943490717D4C168C943490713D43F
:102480006FF004010161022020762068806910F459
:10249000407F204602D0FFF7CAFF04E000F096F824
:1024A000204600F02BF9257620680169C943090709
:1024B00016D4C168C943090712D46FF0080101613D
:1024C000042020762068C0698007204602D0FFF7EC
:1024D000AEFF04E000F07AF8204600F00FF9257610
:1024E00020680169C943C90617D4C168C943C90630
:1024F00013D46FF010010161082020762068C069B4
:1025000010F4407F204602D0FFF791FF04E000F076
:102510005DF8204600F0F2F8257620680169C9438D
:10252000C90708D1C168C943C90704D1891E01611F
:10253000204600F001F920680169C943090609D461
:10254000C168C943090605D46FF0800101612046C6
:10255000FFF773FE20680169C943490609D4C168C1
:10256000C943490605D46FF040010161204600F0DF
:10257000E4F820680169C94389060BD4C168C943DE
:10258000890607D46FF0200101612046BDE8704044
:10259000FFF754BE70BD000000B50068094985B062
:1025A00088420CD14FF42040009002200021CDE958
:1025B0000101CDE9031069460348FEF7B9FF05B0F4
:1025C00000BD000000080040000C0240704770B5DC
:1025D000044690F838000D4601280DD0012684F8F5
:1025E0003860022084F8390042B1042A18D0082A41
:1025F0002AD00C2A4DD139E0022070BD206802F0AB
:1026000055F82068816941F008018161206881697D
:1026100021F004018161206881692A69114311E078
:10262000206802F06FF82068816941F400618161DF
:102630002068816921F480618161206881692A694B
:1026400041EA0221816124E0206802F08DF82068CF
:10265000C16941F00801C1612068C16921F004012C
:10266000C1612068C1692A69114311E0206802F044
:10267000ABF82068C16941F40061C1612068C1699B
:1026800021F48061C1612068C1692A6941EA02219F
:10269000C16184F83960002084F8380070BD10B53D
:1026A000040003D094F8390010B107E0012010BDF8
:1026B000002084F83800204600F00CF8022084F84E
:1026C0003900211D206801F073FF012084F83900D2
:1026D000002010BD08B500680649884208D10648A8
:1026E000016841F004010160006800F004000090FE
:1026F00008BD00000008004040380240704700005C
:1027000010B504460068012201F0B2FF08492068B4
:10271000884202D00749884203D1416C41F400410C
:1027200041642068016841F001010160002010BD92
:1027300000000140000401407047704770470000EE
:1027400070B5026804461068D168536910F00F0F25
:1027500050D003F0010501F4907635435DD0C207F7
:1027600005D0CA0503D5E26B42F00102E2634207DD
:1027700005D5DA0703D0E26B42F00202E26382077A
:1027800005D5DA0703D0E26B42F00402E2630207E8
:1027900005D5DA0703D0E26B42F00802E263E26B90
:1027A000002A33D0800604D5880602D5204602F0E0
:1027B0006CF820684069E16BC0F38010090700D411
:1027C00028B3204602F053F82068416949061AD51B
:1027D000416921F040014161606BA0B11B49016575
:1027E000606BFEF739FD002810D0606B016DBDE80D
:1027F00070400847830610D58B060ED52046BDE8ED
:10280000704002F042B82046FFF798FF70BD2046A6
:10281000FFF794FF0020E06370BD030606D50B06AA
:1028200004D52046BDE8704002F0CCB94006F3D58F
:102830004806F1D5D168204621F04001D160202121
:1028400084F8391000F0AEF970BD00005F48000850
:1028500070B5040004D094F83900002510B106E0EA
:10286000012070BD84F83850204600F023F8242061
:1028700084F839002068C16821F40051C160204605
:1028800002F04AF82068016921F490410161206852
:10289000416921F02A0141612068C16841F4005179
:1028A000C160E563202084F8390084F83A000020F4
:1028B00070BD00002DE9F04F0646DFF834C1036813
:1028C00000244C48022101250327072287B04FF03E
:1028D000006A4FF4806B63452BD1036843F40033E7
:1028E00003600068049200F4003005900C208DE82D
:1028F000A30069464048FEF71BFE414D3F48286053
:10290000C5E901A4C5E9034B6C614FF40030AC612B
:10291000C5E9074028466C62FEF780FD20B140F211
:10292000331138A002F0B9F97563AE6307B0BDE8A2
:10293000F08FDFF8ECC0634542D1036843F4802395
:1029400003600068884600F4802005904FF4807092
:10295000CDE9000802AB914683E8A0026946314800
:10296000FEF7E6FD4FF40060CDE9000802AB6946D2
:1029700083E8A0022C48FEF7DBFD20482B4D603891
:102980002860C5E901A4C5E9034B6C614FF4003030
:10299000AC61C5E9074028466C62FEF73FFD20B1F7
:1029A0004FF4B27117A002F078F975630022114656
:1029B0002720AE63FFF76EF92720FFF75FF9B5E731
:1029C0001B488342B2D10B48001D026842F020022E
:1029D0000260006800F020000590C0208DE8A30090
:1029E0000820049069461048FEF7A2FD9EE700000B
:1029F000004400404038024000000240886002402D
:102A0000980500202E2E2F5372632F73746D33326E
:102A1000663478785F68616C5F6D73702E63000058
:102A200000480040000C024000080240F805002069
:102A3000001401402DE9F843044690F83A00994605
:102A400016460D4620284FD195B18EB194F8380026
:102A5000012849D0012084F838000027E7632220AC
:102A600084F83A00FEF746FEA6858046E68531E00A
:102A70000120BDE8F883E08D401EE085A068434654
:102A8000B0F5805F4FF000024FF020012046CDF8F6
:102A9000009004D002F0C7F898B10320E9E702F0F3
:102AA000C2F80028F9D1206900282068406803D0C6
:102AB000C1B225F8011B0DE0C0F3080125F8021B87
:102AC00008E0206900282068406801D000F07F00FD
:102AD00005F8010BE08D0028CDD1202084F83A00C4
:102AE00084F838700020C4E70220C2E790F83A303A
:102AF000202B1DD1D1B1CAB190F83830012B17D09D
:102B000081628285C2850021C163222280F83A2039
:102B100080F8381001684A6942F001024A61006891
:102B2000C16841F49071C160002070470120704776
:102B30000220704708B5154900680968884223D10A
:102B400013480090031FA0F11802104811A1403053
:102B5000FDF77AFB0D494FF47A730F2240310B4891
:102B6000FFF768FF0A482038017A30290CD10F217D
:102B70009FED0B0A80ED070A80ED080A0348BDE8C7
:102B800008404030FDF754BB08BD00004805002058
:102B90003001002025632025662025660000000006
:102BA000000000007047FEE701684A69D243520501
:102BB0000CD46FF480624A6104210164002140F862
:102BC000301F20224273017301207047002070479C
:102BD0002DE9F84F0446C06A1E4692460D4621680C
:102BE0000A6842F480620A60042807D0012805D0F0
:102BF00010F5803F02D0206B112804D120680168B5
:102C000041F4807101604FF00118534600224146A3
:102C10002046009600F0BDF8B8BB206908F1010914
:102C2000B0F5804F12D00620216800EAD51747F092
:102C3000F00008613346524608F10701204600F0D3
:102C4000D9F838B1206C04282FD01EE0E8B240F04B
:102C500001001FE02168E8B2086133465246494648
:102C6000204600F0C7F80028ECD12068416981694E
:102C70000091016841F48071016053460022414691
:102C80002046009600F085F810B10320BDE8F88FCB
:102C900047F0F10021680861334652464946204614
:102CA00000F0A8F80028CDD1F0E70120EEE7000001
:102CB000F8B50446C06A1E460D461746042807D0DC
:102CC000012805D010F5803F02D0206B122804D1D6
:102CD0002068016841F480710160134600224FF0C2
:102CE00001112046009600F054F8A0B92069B0F513
:102CF000804F12D00620216800EAD51040F0F00085
:102D0000086133463A460E49204600F073F838B160
:102D1000206C042811D00320F8BD05F0FE0000E06F
:102D2000E8B221680861064933463A46891F2046C1
:102D300000F060F80028EBD1F8BD0120F8BD0000DC
:102D40000800010070B516460D4604461AE02046FC
:102D5000FFF72AFF08B1012070BD681C12D025B111
:102D6000FEF7C8FC801BA8420CD954F8400F40F075
:102D7000200044F810090020206020216173207396
:102D8000032070BD20684069C0434007DFD40020A5
:102D900070BD2DE9F0471E4690460D460446C1F32E
:102DA0000747DDF8209012E0701C10D02EB1FEF71E
:102DB000A1FCA0EB0900B04209D9002044F8300F73
:102DC00020216173A07320730320BDE8F087206881
:102DD000012F0AD0806925EA00000004000C06D00B
:102DE00000214145E0D00020EFE74069F3E70121F1
:102DF000F7E700002DE9F0479A4691460D46044654
:102E000000264FF02008C1F307472AE020684069F8
:102E1000C043400512D42068016841F4007101608C
:102E200021686FF48060486104202064266384F880
:102E30003D8084F83C600120BDE8F087B9F1FF3F98
:102E40000FD0B9F1000F05D0FEF754FCA0EB0A013A
:102E5000494506D944F8306F84F80D802673032065
:102E6000EAE72068012F07D0D0F8180025EA000013
:102E70000004000CE0D0C9E74069F7E72DE9F04114
:102E8000002590460E460446202721E04069C043B5
:102E9000C0060CD421686FF01000486125642563DA
:102EA00084F83D7084F83C500120BDE8F0812EB1DB
:102EB000FEF720FCA0EB0800B04209D954F8400FFF
:102EC00040F0200044F80409677025700320ECE707
:102ED00020684169C9434906D8D40020E5E770B5A8
:102EE00016460D4604461AE02046FFF75DFE08B17F
:102EF000012070BD681C12D025B1FEF7FBFB801BC2
:102F0000A8420CD954F8400F40F0200044F81009B2
:102F100000202060202161732073032070BD206891
:102F20004069C0430006DFD4002070BD2DE9F041A8
:102F30002E4C9FED2D0A074684ED1C0A84ED1D0AD8
:102F400084ED1E0A4FF4FA750026384600F040FC66
:102F5000B4F90800D4ED1C0A00EE100AB8EEC00A5D
:102F600030EE800A84ED1C0AB4F90A00D4ED1D0A83
:102F700000EE100AB8EEC00A30EE800A84ED1D0A99
:102F8000B4F90C00D4ED1E0A00EE100A0420B8EECD
:102F9000C00A30EE800A84ED1E0AFEF7A9FA761CFC
:102FA000B6B2AE42D1D300EE105AD4ED1C0AB8EE40
:102FB000400A80EE801A00EE105AB8EE400A84ED06
:102FC0001C1AD4ED1D0A80EE801A00EE105AB8EEDD
:102FD000400A84ED1D1AD4ED1E0A80EE801A84ED9D
:102FE0001E1ABDE8F0810000000000000000002073
:102FF0002DE9F041074600F0EBFBC94D002605F135
:103000008004B5F90E00D5ED170A00EE100AB8EEEF
:10301000C00A20EE200A84ED0A0A00EE100AB8EE7B
:10302000C00A20EE200A84ED0D0AB5F91000D5ED96
:10303000180A00EE100AB8EEC00A20EE200A84ED4D
:103040000B0A00EE100AB8EEC00A20EE200A84ED4A
:103050000E0AB5F91200D5ED190A00EE100AB8EE05
:10306000C00A20EE200A84ED0C0A00EE100AB8EE29
:10307000C00A20EE200A84ED0F0A6E8307E19FED5F
:10308000A90A384684ED060A84ED050A00F0A0FB83
:10309000A878F7EE000A00EE100A94ED071AB5F9C9
:1030A0000E10B8EE400AD5ED171A30EE600A20EE89
:1030B000011A00EE101AB8EEC00A00EE211A00EE56
:1030C000100AF8EE401A81EE210A01EE100AB8EE5D
:1030D000411A31EE601A84ED070AD4ED081AB5F9E9
:1030E000101095ED182A61EE211A01EE101AB8EEB3
:1030F000C11A41EE021A01EE100AB8EE412A81EE21
:10310000821A01EE900AF8EE611A71EEE00A84ED7F
:10311000081AD4ED091AB5F9121095ED192A60EEC6
:10312000A11A00EE901AF8EEE00A40EE821A00EEC4
:10313000900AB8EE602AC1EE820AC4ED090AD4ED05
:103140000A1AB4EEE10AF1EE10FA05DD70EE611A2A
:10315000C4ED061A84ED0A0AD4ED061A94ED052A88
:10316000F4EEC21AF1EE10FA01DDC4ED051AD4ED49
:103170000B1AB4EEE11AF1EE10FA05DD71EE611AE8
:10318000C4ED061A84ED0B1AD4ED061A94ED052A47
:10319000F4EEC21AF1EE10FA01DDC4ED051AD4ED19
:1031A0000C1AF4EEE10AF1EE10FA05DD70EEE11A08
:1031B000C4ED061AC4ED0C0AD4ED061A94ED052AE6
:1031C000F4EEC21AF1EE10FA01DDC4ED051AD4EDE9
:1031D0000D1AB4EEE10AF1EE10FA07D270EE611AA0
:1031E000F0EEE11AC4ED061A84ED0D0A94ED060A1C
:1031F000D4ED051AB4EEE10AF1EE10FA01DD84ED2A
:10320000050A94ED0E0AB4EEC01AF1EE10FA07D2D8
:1032100031EE400AB0EEC00A84ED060A84ED0E1AC3
:1032200094ED060A94ED051AB4EEC10AF1EE10FA17
:1032300001DD84ED050A94ED0F0AF4EEC00AF1EE0B
:1032400010FA07D230EEC00AB0EEC00A84ED060ACA
:10325000C4ED0F0A94ED060AD4ED050AB4EEE00AB7
:10326000F1EE10FA02DCB0EE600A01E084ED050A2E
:10327000D5ED070AB4EEE00AF1EE10FA01DD6E8337
:1032800002E0688B401C68830420FEF731F9688BEC
:10329000A9888842FFF4F3AE94ED0A3A94ED0D1A32
:1032A000B6EE000A73EE010A33EE411A60EE800AB0
:1032B00021EE001AC4ED100AD4ED0B2AD4ED0E0A4B
:1032C00072EEA01A72EEE00AF0EE082A61EE801AA1
:1032D00060EE800AC4ED111A94ED0C2AD4ED0F1A99
:1032E00072EE213A72EE611A63EE803A61EE801A54
:1032F00031EE200AC4ED123A30EE212A82EE220A83
:1033000084ED130A80EE012A80EE201A85ED082A4A
:10331000C0EE210A85ED091AC5ED0A0ABDE8F08163
:1033200000000020000000002DE9F05F9B462DED1D
:10333000028B91468A4600F04BFA9848B0F9141077
:1033400000EE101AB8EEC00ADFED950A00F1800415
:1033500060EE201A90ED1B0A94ED1A1A11EE801AF5
:10336000D0ED0B1A61EE211AC0ED0E1AB0F916104D
:1033700001EE101AB8EEC11A21EE202A94ED1B1AA4
:1033800012EE001A90ED0C2A21EE022A80ED0F2A8F
:10339000B0F9181001EE101AB8EEC11A21EE201A79
:1033A000D4ED1C0A51EE000A90ED0D0A60EE802A61
:1033B000C0ED102AB0F90810D0ED1C0A00EE101A6A
:1033C000B8EEC00A70EE600A90ED1A0A20EE804A4C
:1033D00080ED114AB0F90A1090ED1D1A00EE901A16
:1033E000F8EEE00A70EEC10A60EE800AC0ED120A43
:1033F000B0F90C1090ED1E3A01EE101AB8EEC11A99
:1034000031EE431A21EE000A80ED130AB0F90E10D6
:1034100094ED101A03EE101AD0ED173AB8EEC33A35
:1034200013EE231A90ED083A61EE033AC0ED143A18
:10343000B0F9101094ED111A03EE101AD0ED184ADD
:10344000B8EEC33A13EE241A90ED093A21EE033A8E
:1034500080ED153AB0F9121094ED121A04EE901A9C
:10346000F8EEE44A90ED195A14EE851AD0ED0A4AA6
:1034700061EE244AC0ED164A9FED4A8A20EE081AF2
:1034800024EE080A60EE880AB1EE644A00F098FB68
:10349000454D464E464F95ED000AD5ED000A96ED96
:1034A000001ADFF8108160EE200A96ED000AD8EDD0
:1034B000001AF0EE008A40EE010A97ED000A97ED3F
:1034C000001A40EE410A98ED000A98ED001A40EE0D
:1034D000410A96ED000A97ED001A20EE010A95EDDB
:1034E000001A01EE210A20EE280A01F081FC84ED89
:1034F000020A96ED000AD8ED000A97ED001A20EEB8
:10350000200AD5ED000A00EEC10A20EE280A01F0DB
:10351000D9FBB1EE400A84ED030A95ED000AD5ED22
:10352000000A96ED001AD8ED001A60EE200A96ED1A
:10353000000A40EE410A97ED000A97ED001A40EEAE
:10354000410A98ED000A98ED001A40EE010A95ED47
:10355000000A96ED001A20EE010A97ED001A01EE1E
:10356000210A20EE280A01F043FC84ED040A94EDC0
:10357000030AC0EE080AC9ED000A94ED020AC0EE83
:10358000080ACAED000A94ED040AC0EE080ACBED61
:10359000000ABDEC028BBDE8F09F00000000002097
:1035A00079E91C4135FA8E3C00010020040100201D
:1035B000080100200C0100202DE9F84F7D4C8046C9
:1035C0006B272770802060704FF47A7502232246A3
:1035D000D02140460095FEF70BFA6420FDF788FFE6
:1035E00001220B21404600F065F96420FDF780FFC1
:1035F00027704FF0000984F8019002232246D02161
:1036000040460095FEF7F4F96420FDF771FF27703E
:103610004FF0010B84F801B002232246D02140462E
:103620000095FEF7E5F9C820FDF762FF1B2020702A
:103630004FF0180A84F801A002232246D021404608
:103640000095FEF7D5F99FED5C0AA61F1C2086EDBC
:103650001A0A207084F801A002232246D021404695
:103660000095FEF7C5F99FED550A192086ED1B0A56
:10367000207084F8019002232246D0214046009514
:10368000FEF7B6F96A2020702020607002232246DF
:10369000D02140460095FEF7ABF9242020700D2084
:1036A000607002232246D02140460095FEF7A0F923
:1036B00001220B21404600F0FDF86420FDF718FFC1
:1036C00000220A21404600F0F5F86420FDF710FFC3
:1036D0000F220A21404600F0EDF86420FDF708FFB4
:1036E00003221021404600F0A7F804F1EE00DFEDC0
:1036F000340A01789FED331A00EE101A0022B8EE5A
:10370000400A70EE601AB7EE000AB0EE402A01EEF1
:10371000812ADFED2D1A62EE212A9FED2C2A82EEFE
:10372000823A86ED173A417802EE901A0A21F8EEB5
:10373000622A32EEE03AF0EE402A43EE012A62EECF
:10374000A12A82EE823A86ED183A807802EE900A3B
:103750004046F8EE622A72EEE00A00EE810A20EEA0
:10376000210AC0EE020AC6ED190A00F0A3F864208F
:10377000FDF7BEFE16220A21404600F09BF86420A9
:10378000FDF7B6FE277084F801B002232246D0214F
:1037900040460095FEF72CF9C820FDF7A9FE072248
:1037A0000321404600F048F8BDE8F84F0A20FDF735
:1037B0009FBE00000600002000007A3D0000003A95
:1037C000000000430000803B0080994500F0FF4668
:1037D00038B504464FF47A7000900123144AD02182
:1037E0002046FEF705F947F2305000901523114AA4
:1037F000D0212046FEF708F80E4801884ABA0C4945
:103800008A82428852BACA82828852BA0A8302895C
:1038100052BA0A81428952BA4A81828952BA8A814D
:10382000C289CA81028A0A82408A488238BD000061
:1038300000000020580100202DE9F8431C4C0646EA
:10384000252020708C206070174688464FF47A75CA
:1038500002232246D02130460095FEF7C9F82620E3
:10386000207084F8018002232246D0213046009542
:10387000FEF7BEF82720207047F08000607002231A
:103880002246D02130460095FEF7B2F80123621F90
:10389000D02130460095FEF7ABF83B4604F1EE022E
:1038A000D02130460095FDF7AFFFBDE8F88300005A
:1038B000060000202DE9F8431B4C06462520207009
:1038C0000C20607090460F464FF47A750223224612
:1038D000D02130460095FEF78BF8262020706770C7
:1038E00002232246D02130460095FEF781F863205E
:1038F000207084F8018002232246D02130460095B2
:10390000FEF776F82720207081206070022322467F
:10391000D02130460095FEF76BF839463046BDE8B9
:10392000F8430122FFF788BF060000202DE9F0418F
:103930004C4886B00024016841F0800101600168B4
:1039400001F080010591016841F001010160016809
:1039500001F001010591016841F010010160016869
:1039600001F010010591016841F008010160016852
:1039700001F008010591016841F00401016001684E
:1039800001F004010591016841F002010160006845
:10399000354F00F002004FF42075059000222946B3
:1039A0003846FDF7A2FEDFF8C480AE0000223146A3
:1039B0004046FDF79AFE00950125CDE90154694680
:1039C00038460394FDF7B4FD701000902848CDE907
:1039D000010469463846FDF7ABFD0096CDE9015478
:1039E000694640460394FDF7A3FD1B200090214843
:1039F000CDE9010469464046FDF79AFD0022012108
:103A00000620FEF747F90620FEF738F900220121CB
:103A10000720FEF73FF90720FEF730F900220121C9
:103A20000920FEF737F90920FEF728F900220121C5
:103A30000A20FEF72FF90A20FEF720F9002211468E
:103A40001720FEF727F91720FEF718F90022114674
:103A50002820FEF71FF92820FEF710F906B0BDE870
:103A6000F08100003038024000100240000C02409B
:103A700000002110000031100B4810B50949016009
:103A80000A49416000214FF480428160C0E903127D
:103A900041618161C1610162FDF732FE002800D001
:103AA000FEE710BD00540040C0030020801A06004D
:103AB00010B5124886B04FF0804101604AF20F41C4
:103AC0000024C0E901141321C0E90314FEF7DFFB51
:103AD00000B1FEE74FF48050009069460748FEF7BA
:103AE0002DFC00B1FEE7049404A904480594FEF7F8
:103AF000A6FB002800D0FEE706B010BD140400208D
:103B000010B5134886B0114901604AF20F410024F4
:103B1000C0E901140721C0E90314FEF7B8FB00B1A6
:103B2000FEE74FF48050009069460948FEF706FC16
:103B300000B1FEE7049404A905480594FEF77FFB55
:103B4000002800D0FEE706B010BD000000040040D1
:103B50005004002010B519488AB0174901600921A6
:103B60000024C0E9011440F2A311C0E90314FEF7D8
:103B700096FD00B1FEE7079407A910480894FEF7E8
:103B80005EFB00B1FEE76020CDE900040294042250
:103B900069460A480494FEF71AFD00B1FEE70C22BC
:103BA00069460648FEF713FD00B1FEE70348FEF73D
:103BB000F3FC0AB010BD0000000800408C04002097
:103BC00010B5B5EEC03A2DED0A0BF1EE10FA2DED61
:103BD000108B9AB011D1F5EEC03AF1EE10FA0CD17B
:103BE000B5EEC04AF1EE10FA07D11AB0BDEC108B59
:103BF0000AB0BDE8104000F0BDBAFE4CF5EEC01AA8
:103C0000D4ED024AD4ED035A20EE645AD4ED034AAF
:103C100004EEE05AD4ED044A04EEC15AF6EE004A2E
:103C200025EE24FA94ED015A25EE005A05EE815A4C
:103C3000D4ED045A05EEE05AD4ED025A65EE24EABA
:103C400094ED015A25EE205A05EEC15AD4ED045ADE
:103C500005EE805A25EE24EA94ED015A25EE011A6C
:103C600094ED025A05EE201AD4ED030A00EEC01AB4
:103C700061EE24DAF1EE10FA09D1B5EEC02AF1EEC8
:103C800010FA04D1F5EEC02AF1EE10FA7ED021EE42
:103C9000A10A02EE020A02EEA20A01F043FA21EEA4
:103CA000801A8DED2D1A22EE001A22EE802A23EEC4
:103CB000030A8DED2E1A8DED2F2A03EEA30A04EED2
:103CC000040A01F02FFA63EE009A23EE809A64EE64
:103CD000008A94ED010AB0EE008A20EE080A60EE38
:103CE000291ACDED171A94ED010A20EE080A60EEAC
:103CF000091ACDED141A94ED010A20EE080A20EEFF
:103D0000281A94ED020A20EE080A60EE291ACDED79
:103D1000061A94ED010A20EE087A8DED097A94EDE9
:103D2000020A20EE08CA94ED030A60EE08BA94ED88
:103D3000040A20EE082A8DED082A94ED010A60EEAF
:103D4000080A94ED030A60EE801ACDED001A94ED96
:103D5000030AD4ED040A20EE080A60EE201ACDED25
:103D6000031A94ED010AD4ED010A20EE20DA94ED55
:103D7000010AD4ED020A20EE202A8DED0A2A94EDE4
:103D8000010AD4ED030A60EE20FA00E09EE194ED12
:103D9000010AD4ED040A20EE205A8DED0E5A94ED5E
:103DA000020AD4ED020A60EE20AA94ED020AD4EDD4
:103DB000030A20EE202A8DED0D2A94ED020AD4ED9F
:103DC000040A60EE20CA94ED030AD4ED030A20EE43
:103DD00020AA94ED030AD4ED040A20EE205A8DEDBA
:103DE0000C5A94ED040AD4ED040ADDED141A20EE09
:103DF00020BA69EE8D0A94ED040A41EEC00A94EDF2
:103E0000030AD4ED031A41EE000A2CEE090A49EE2A
:103E1000AA0A40EE210A6CEE281A94ED040A41EE3B
:103E2000800ADDED171A94ED040A21EE800AD4ED24
:103E3000021A49EECA0A09EE0D0A49EECB0A01EE52
:103E4000610ADDED061A94ED031A60EEA00A01EE98
:103E5000810A2BEEA81AD4ED041A09EE6A0A09EEBB
:103E60000A0A01EE210A09EE4B0A40EE000A10EEA2
:103E7000900AFCF706FD41EC100B01F0E1F851EC63
:103E8000100BFCF711FDDDED141AD4ED020A94EDD0
:103E9000031A9DED0A2A61EEA00ADDED171A00EE65
:103EA000100A7CEEEF4A41EEC10ADDED061A94EDF0
:103EB000041A9DED0E5A9DED097AF1EE006A48EE66
:103EC0008D0A20EE084A41EE810A2BEE891AD4EDC4
:103ED000041A48EEEA0A41EE210ADDED031A9DEDCF
:103EE0002E1A42EE081A48EECA0A31EEC13ADDED4A
:103EF000001A9DED2D1A48EE8B0A5CEE881A63EECF
:103F00000C2A60EE883A31EEC11AF6EE001A31EE54
:103F1000CA2A4BEEC12A71EEEA1A32EE4B2A71EE32
:103F2000CA1A22EE002A00EEA42A72EE694A94ED23
:103F3000032A20EE822A42EE642A94ED022A60EEE1
:103F4000825A94ED042A40EE425A9DED0D2A32EE3B
:103F5000452A9DED0C5A22EE006A9DED0A2A32EEAA
:103F6000052A00EE826A3FEEAC2A22EE002A36EEE7
:103F7000495AB7EE006A00EEA12AD4ED031A0AEE00
:103F8000C86A45EE852A60EE211A72EE685A9DEDE8
:103F9000082A0AEE486A41EEA52A61EE021A9DED52
:103FA0002F2A36EE426A94ED022A47EE031A22EED9
:103FB000262A94ED017A42EE461A94ED042A20EE68
:103FC000822A42EE241A94ED032A20EE022A00EE01
:103FD000872A94ED027A42EE051A94ED042A20EE27
:103FE000022A03EEC72A42EE251A9DED082A23EE87
:103FF000022A01E0FC0000209DED097A07EE412A2B
:1040000094ED037A67EE266A06EEC62A20EE486A29
:10401000D4ED036A26EE266AD4ED016A00EEE66A64
:10402000D4ED046A06EE242A94ED026A20EE066AB4
:1040300000EEA66AD4ED036A06EE052A94ED016A45
:1040400020EE066A03EEE66A61EE0C3A94ED021A7F
:104050004BEE833A20EE811A94ED043A06EE252ABF
:1040600004EE431A41EE243A94ED031A60EE810AFD
:1040700094ED011A40EE410A40EE853AD4ED020A71
:1040800020EE200A40EE253A22EEA20A01EEA10A15
:1040900002EE020A03EEA30A01F044F821EE801AB0
:1040A00062EE800A62EE001A94ED002A23EE800A86
:1040B00002EE60FAD4ED000A40EEC1EAD4ED000A47
:1040C00000EEE1EAD4ED000A40EEC0DAD4ED010AD8
:1040D0009FED270A4FEE000AC4ED010AD4ED020A53
:1040E0004EEE800AC4ED020AD4ED030A4EEE000A39
:1040F000C4ED030AD4ED040A4DEE800AC4ED040AAF
:1041000094ED010AD4ED010A94ED021A20EE200A82
:10411000D4ED020A00EE810AD4ED030A94ED031AED
:1041200000EE810AD4ED040A94ED041A00EE810A2F
:1041300000F0F8FFD4ED010A60EE800AC4ED010A38
:10414000D4ED020A60EE800AC4ED020AD4ED030A3F
:1041500060EE800AC4ED030AD4ED040A20EE800A62
:1041600084ED040A1AB0BDEC108B0AB010BD00003B
:104170006F12833B00B5A64AF5EEC01A2DED088BF1
:1041800092ED023AD2ED033A92ED034A20EE433A21
:1041900003EEE03AD2ED043A03EEC13AF6EE003A0D
:1041A00023EE235A92ED013A23EE003A04EE013A4F
:1041B00092ED044A04EE603A92ED024A63EE234A1D
:1041C00092ED013A23EE203A04EE413A92ED044A90
:1041D00004EE003A23EE234A92ED013A23EE011A4F
:1041E00092ED023A03EE201AD2ED030A00EEC01A55
:1041F00061EE235AF1EE10FA09D1B5EEC02AF1EEC4
:1042000010FA04D1F5EEC02AF1EE10FA7ED021EEBC
:10421000A10A02EE020A02EEA20A00F083FF21EEDA
:10422000801A62EE000A62EE807AD2ED011AB0EED8
:10423000000AD2ED022A21EE809AD2ED021A92ED06
:10424000023AD2ED033A61EE806AD2ED031A92EDA2
:1042500004AA21EE807AD2ED041A61EE808AD2EDB2
:10426000011AB1EE000A61EE809AD2ED021A21EE37
:10427000802AD2ED031A21EE806AF2EE001A62EE75
:10428000A1AAD2ED032A22EEA18AD2ED011AD2ED23
:10429000012A61EEA21AD2ED022A62EE832A92ED81
:1042A000033A63EE233A92ED043A23EE0AAA29EE8A
:1042B000A33A22EE0ABA07EE013A08EEC1BA09EEB5
:1042C000A23A61EE809AD2ED021A09EEA1BA06EE88
:1042D000E03A09EE60BA7BEE421A4AEEA21A4AEEC2
:1042E000A31A42EE271A92ED032A29EE822A09EE3A
:1042F000012A06EE0A2A08EEE02A32EE462A08EEE5
:10430000222A08EE232A06EE272A00E031E062EE98
:10431000802A92ED046A23EE800A62EE862A46EE37
:10432000C12A92ED041A40EE012A23EE030A01EE9F
:10433000A10A47EE602A02EE020A02EEA20A00F08B
:10434000F1FE61EE800A23EE001A62EE001A92ED91
:10435000002A22EE800A02EE415A92ED001A41EE46
:10436000604AD2ED000A00EEE14AD2ED000A40EECA
:10437000C05AD2ED010A9FED270A45EE000AC2EDB0
:10438000010AD2ED020A44EE800AC2ED020AD2ED21
:10439000030A44EE000AC2ED030AD2ED040A45EE18
:1043A000800AC2ED040A92ED010AD2ED010A92EDF3
:1043B000021A20EE200AD2ED020A00EE810AD2EDA6
:1043C000030A92ED031A00EE810AD2ED040A92ED7F
:1043D000041A00EE810A00F0A5FED2ED010A60EE9B
:1043E000800AC2ED010AD2ED020A60EE800AC2ED37
:1043F000020AD2ED030A60EE800AC2ED030AD2ED92
:10440000040A20EE800A82ED040ABDEC088B00BD90
:10441000FC0000206F12833BFEE770470907090E7E
:10442000002806DA00F00F0000F1E02080F8141DEB
:10443000704700F1E02080F8001470477047704723
:1044400010B5FDF797FBBDE81040FDF7F2BE000088
:1044500030B5244893B00025016841F080510160D7
:10446000006800F0805011901F48016841F48041BD
:1044700001600068022400F4804011900120009047
:10448000000401908001CDE9064008AA0420A8217B
:1044900082E813000B906846FDF71CFD00B1FEE7B3
:1044A0000CA90F2081E831004FF4A0500F904FF479
:1044B0008050109005210CA8FDF71EFC00B1FEE70E
:1044C000FDF7B2FC4FF47A71B0FBF1F0FDF79DFE01
:1044D0000420FDF78DFE00221146501EFDF7DAFB89
:1044E00013B030BD403802400070004010480168F1
:1044F00041F4700101600F48016841F00101016061
:104500000C4A00210832116002680B4B1A4002600D
:10451000031D0A4A1A60026822F4802202600548DC
:104520000C3001600249580680390860704700006D
:1045300088ED00E000380240FFFFF6FE1030002456
:104540000D480346C16841610021C1600269826172
:1045500001610A4AC16993ED0B0A914202DDDFED68
:10456000080A01E0DFED070A30EEC00A80ED0C0A10
:104570000548FDF75DBF0000100100200000344336
:104580000000344391ED124114040020064B10B595
:104590001A1D111D0548FEF7C7FE0448BDE810406E
:1045A0009030FDF745BF000034010020C00300201B
:1045B000F0B50268234B244D244E254F254C4FF077
:1045C000804C984209D0604507D0A84205D0B0423F
:1045D00003D0B84201D0A04204D122F0700E4A6844
:1045E00042EA0E0298421BD0604519D0A84217D06B
:1045F000B04215D0B84213D0A04211D0164DA842F7
:104600000ED0164DA8420BD0154DA84208D0154D1E
:10461000A84205D0144DA84202D0144DA84203D19F
:1046200022F44075CA682A4302608A68C2620A6836
:104630008262984201D0A04201D10969016301213F
:104640004161F0BD0000014000040040000800404E
:10465000000C0040000401400040014000440140C3
:104660000048014000180040001C004000200040AD
:1046700010B50123046A8B409C430462036A8A409C
:104680001343036210BD10B5846842EA032224F488
:104690007F440A432243826010BD826822F0700288
:1046A0000A4342F0070181607047000030B5026A9A
:1046B00022F001020262026A436884690D6824F0F4
:1046C0007304254322F002048A6822430B4CA04263
:1046D00002D00B4CA0420BD122F00804CA6823F48C
:1046E000407322434C6922F004021C438B6923432C
:1046F0004360856149684163026230BD000001404A
:104700000004014030B5026A22F010020262026A1F
:10471000436884690D6824F4E64444EA05248D68FE
:1047200022F0200242EA05120D4DA84202D00D4DA2
:10473000A8420ED1CD6822F0800242EA05124D69EE
:1047400023F4406343EA85038D6922F0400243EA83
:1047500085034360846149688163026230BD000063
:10476000000001400004014030B5026A22F480726A
:104770000262036A4268C46923F4007324F073057B
:104780000C682C438D6843EA05230D4DA84202D0E6
:104790000C4DA8420ED1CD6823F4006343EA0523F3
:1047A0004D6922F4405242EA05128D6923F4806378
:1047B00042EA05124260C4614968C163036230BDC8
:1047C000000001400004014030B5026A22F480522A
:1047D0000262046A4268C3690D6823F4E64343EA4F
:1047E00005238D6824F4005444EA0534084DA8429A
:1047F00002D0084DA84204D14D6922F4804242EA19
:1048000085124260C36149680164046230BD0000E2
:10481000000001400004014010B5036A046A24F05E
:1048200001040462846924F0F00444EA021423F0D1
:104830000A020A438461026210BD10B5036A23F0C4
:10484000100303628369046A23F4704343EA02326B
:1048500024F0A00343EA01118261016210BD10B58A
:10486000806B0021C185C184FDF768FF10BD016820
:10487000CA6822F49072CA6001684A6922F0010293
:104880004A61202180F83A10704710B590F83A102C
:10489000222901D0022010BD8168B1F5805F11D0BE
:1048A0000169002901681FD0496801F07F03816A0E
:1048B0004A1C82620B70C18D491E0904090CC18516
:1048C00018D026E00269816A002A0268526805D081
:1048D000D2B20A80816A491C8162ECE7C2F3080205
:1048E0000A80816A891CF7E74A68816A4B1C8362E7
:1048F0000A70E0E70168CA6822F49072CA60016831
:104900004A6922F001024A61202180F83A10FEF73C
:1049100011F9002010BD00002DE9F04104460068A7
:10492000016921F44052E168114301612168C868BE
:1049300049F20C6290432369A268E5691A436369EE
:104940002B431A430243CA602168486920F440722D
:10495000A06910434861E1696425B1F5004F9748AB
:10496000974A21684FF032083FD0914201D08142EE
:104970007CD1FDF76FFA00EBC00101EB001061681C
:104980008900B0FBF1F6FDF765FA00EBC00101EB21
:10499000001061688900B0FBF1F0B0FBF5F06FF03A
:1049A0001801484306EB800108EB0110B0FBF5F05D
:1049B00000F0F006FDF74EFA00EBC00101EB00102D
:1049C00061688900B0FBF1F0B0FBF5F006EB001672
:1049D000FDF740FA00EBC00101EB001061688900AF
:1049E000B0FBF1F7FDF736FAD2E0914201D08142F7
:1049F0003DD1FDF72FFA00EBC00101EB001061681B
:104A00004900B0FBF1F0B0FBF5F00601FDF722FA2A
:104A100000EBC00101EB001061684900B0FBF1F749
:104A2000FDF718FA00EBC00101EB001061684900C6
:104A3000B0FBF1F0B0FBF5F06FF01801484307EB65
:104A4000800108EBC100B0FBF5F000F0F80006EBC8
:104A50004006FDF7FFF900EBC00101EB00106168B3
:104A60004900B0FBF1F7FDF7F5F93CE055E0FDF743
:104A7000E1F900EBC00101EB001061684900B0FBF7
:104A8000F1F0B0FBF5F00601FDF7D4F900EBC00141
:104A900001EB001061684900B0FBF1F7FDF7CAF9BE
:104AA00000EBC00101EB001061684900B0FBF1F0C0
:104AB000B0FBF5F06FF01801484307EB800108EBFD
:104AC000C100B0FBF5F000F0F80006EB4006FDF782
:104AD000B1F900EBC00101EB001061684900B0FBC7
:104AE000F1F7FDF7A7F900EBC00101EB00106168D9
:104AF0004900B0FBF1F0B0FBF5F06FF0180148434E
:104B000007EB800108EBC100B0FBF5F000F00700F7
:104B1000216830448860BDE8F081FDF78BF900EB37
:104B2000C00101EB001061688900B0FBF1F6FDF7F0
:104B300081F900EBC00101EB001061688900B0FB56
:104B4000F1F0B0FBF5F06FF01801484306EB80017F
:104B500008EB0110B0FBF5F000F0F006FDF76AF984
:104B600000EBC00101EB001061688900B0FBF1F0BF
:104B7000B0FBF5F006EB0016FDF75CF900EBC001A9
:104B800001EB001061688900B0FBF1F7FDF752F905
:104B900000EBC00101EB001061688900B0FBF1F08F
:104BA000B0FBF5F06FF01801484307EB800108EB0C
:104BB0000110B0FBF5F000F00F00A9E70014014070
:104BC0000010014090F83910212901D002207047CF
:104BD0008168B1F5805F016A0BD04A1C02620268ED
:104BE00009785160C18C491E0904090CC1840ED09A
:104BF00017E009880268C1F30801516001690029C2
:104C0000016A02D0491C0162ECE7891CFBE70168DC
:104C1000CA6822F08002CA600068C16841F04001A1
:104C2000C160002070472DE9F041984617460E46B6
:104C30000446069D1DE0681C1BD02DB1FCF75AFDF3
:104C4000A0EB0800A84214D92068C16821F4D071F3
:104C5000C1602068416921F001014161202084F890
:104C6000390084F83A00002084F838000320BDE8B9
:104C7000F0812068006836EA000004D00020B842C5
:104C8000D9D00020F3E70120F9E700000148FDF743
:104C900057BD000008050020FEE7FEE741000802BE
:104CA00018BF04200A0E18BF40F001004FF07F42E9
:104CB00032EA010108BF40F00200012808BF0520C8
:104CC0007047000010B54FF00E402DED028BB0EE96
:104CD000408A18EE104A00EB4400B0F1506F4AD8F9
:104CE0004FF0FC40B0EB440F22D2B0EEC80AF7EE12
:104CF000000A30EEC00AF6EE000A60EE208A18EED6
:104D0000900A00F0FFFA01EE100A14F0004F1DBFE8
:104D1000DFED2D0A9FED2D0AB1EE411ADFED2C0AD1
:104D200008BF9FED2C0AF8EE001A21EE218A05E05B
:104D3000DFED290A68EE088AB0EE600A9FED271AB7
:104D4000DFED271A30EE080A48EE811A9FED251A8A
:104D500008EEA11ADFED241A48EE811A9FED231AFE
:104D600008EEA11A68EE281ABDEC028B01EE810A4A
:104D700030EE200A10BD4FF0E440B0EB440F0CD9E8
:104D800018EE100AFFF78AFF042808BF00F0A4F904
:104D9000B0EE480ABDEC028B10BD4FF07F40B0EB87
:104DA000440F07D2B0EE480ABDEC028BBDE81040BC
:104DB00000F083B9012000F0A7F9BDEC028BBDE83B
:104DC000104000F081B900000000C9BF22AAFDB95F
:104DD0000000C93F22AAFD390000000024FE1C3D4E
:104DE000C78AD83C1E67383D1B93993DAFAA2A3E1F
:104DF00010EE100A10B510EE901A4FF0684202EB58
:104E000040032DED028BB3F1654F3CBF02EB410235
:104E1000B2F1654F7CD200BFC0F3C753C1F3C75294
:104E20009A1A1B2A09DD10F0004F14BF9FED6E0A7D
:104E30009FED6E0ABDEC028B10BD12F11A0F1BDA4A
:104E400011F0004F09D010F0004F0CBF9FED680A21
:104E50009FED680ABDEC028B10BD80EE208A18EE33
:104E6000100AFFF71BFF042808BF00F035F9B0EE69
:104E7000480ABDEC028B10BD4200B2EB410F37D99E
:104E800010F0004F19BFDFED5C1A9FED5C1ADFEDEB
:104E90005C1A9FED5C1AB0EE602A0A46F1EE400AF9
:104EA00080F00041B0EE420A10460A1A5200B2F1F8
:104EB000807F34D2484010F0004FDFED532A9FED41
:104EC000533A1DBFBEEE002A71EEE21A31EE431ACC
:104ED000B6EE002A04BF71EEA21A31EE031AF0EE0C
:104EE000402A42EE602A40EE020A82EEA02A18E032
:104EF00011F0004F04BF9FED461AF0EE411AD4D0D6
:104F000010F0004F1CBFDFED431A9FED431A00E085
:104F100026E004BFDFED411A9FED411AC5E780EEA0
:104F2000202A22EE020ADFED3F0ADFED3F2ABDEC28
:104F3000028B40EE202ADFED3D0A40EE220ADFED33
:104F40003C2A40EE202ADFED3B0A40EE220A22EE08
:104F5000000A00EE201A31EE020A30EE210A10BDDE
:104F60004FF07F42B2EB400F28BFB2EB410F05D2AA
:104F7000BDEC028BBDE8104000F0A2B840EA01038E
:104F80005B0008BF41F0FF410BD0B2EB400F08BF00
:104F9000B2EB410F08D120F0804000EE100A21F062
:104FA000804100EE901A37E7B2EB400F12BF5FEA84
:104FB000410240F0FF4001F000413FF42DAF4A00B4
:104FC00092EA40033FF528AF002AACBF9FED1A1AC2
:104FD0009FED1A1A20EE010A60EE810A10EE100A07
:104FE00010EE901A18E70000DB0FC9BFDB0FC93FB6
:104FF000DB0F4940DB0F49C00000C9BF22AAFDB941
:105000000000C93F22AAFD390060ED3EC30ACE3739
:1050100000000000000049C022AA7DBA00004940FB
:1050200022AA7D3A2DAD65BD8FB8D53D0FB511BE15
:1050300061C84C3EA8AAAABE0000804F0000802F85
:1050400000B52DED048BB0EE409AF0EE609A83B07F
:1050500051EC190BFBF72CFD41EC180B18EE100A64
:1050600018EE901A8DED008B002818BF0120084320
:1050700020F00040C0F17F6000F1E040C00F14D08C
:1050800019EE101A19EE900A8DED009B002918BF39
:105090000121084320F00040C0F17F6000F1E040B2
:1050A000C00F04BF012000F02FF8B0EE480A03B093
:1050B000F0EE680ABDEC048B00BD30EE000A7047CC
:1050C00030EE200A70470000DFED020A80EEA00AF1
:1050D00070470000000000009FED020A20EE000A69
:1050E000704700000000001002E008C8121F08C14D
:1050F000002AFAD170477047002001E001C1121F59
:10510000002AFBD170470000014908607047000089
:105110005401002030380A2801D2012070470020B5
:105120007047000010EE100AF6EE000A074960EE24
:10513000200AA1EB600000EE100A20EE801AF7EEC4
:10514000080A41EE400A20EE800A7047DF59375FB7
:1051500008B5FCF717FDFFF77BF9FEF7E7FB5D48A5
:105160000024016841F4001101600068224600F447
:105170000010009021460C20FCF78CFD0C20FCF761
:105180007DFD002211461020FCF784FD1020FCF765
:1051900075FDFEF771FCFEF78BFCFEF7DBFC4F485C
:1051A0004D494FF416560160C0E901640C25C460F6
:1051B000C0E904458461C461FDF74AFB00B1FEE724
:1051C00046484749403001604FF4E131C0E90114DD
:1051D000C460C0E904458461C461FDF739FB00B1D6
:1051E000FEE7FEF78DFC3D483E4940380160C0E9CE
:1051F0000164C460C0E904458461C461FDF728FB13
:1052000000B1FEE7384C002280212046FCF76DFA01
:105210000122550229462046FCF767FA6420FCF774
:1052200067F9324C012229462046FCF75EFA00223B
:10523000E1142046FCF759FA2848FCF701F82C48FD
:10524000FEF7BAF92A48FDF771FE2948FDF7D0FEAE
:1052500022494FF47A74803123460F22A1F1400095
:10526000FDF7E8FB1D4830220F218030FAF7D9FF07
:105270001A480C217C38FDF743FA6420FCF738F912
:10528000164804217C38FDF73BFA19489030FDF7A9
:1052900049F80A20FCF72CF915485430FDF742F87C
:1052A0000E4D144E803506F1200728783072114BD0
:1052B0000A481C33A3F114020FA180300097FAF7BB
:1052C000C3FF0649234680310F22A1F14000FDF7BC
:1052D000B1FBEAE7303802400048004008050020F2
:1052E000001401400044004000100240000C024045
:1052F000C0030020100100202563202566202566BC
:105300000000000010B500EE100A2DED028BB1EE8A
:10531000C08A18EE100A20F00040C0F1FF40C00F14
:105320000AD010EE100A20F00040C0F1FF40C00F7C
:1053300004BF0120FFF7E8FE18EE100ABDEC028B57
:1053400010BD000610160006101600000000000038
:105350000000010203040607080900000000010222
:105360000304DDDDDDDDDCBBBBDDDDDDDDDDDDDD65
:10537000DDDD988888888888888877777777778848
:10538000888885555556666666666666666666688A
:105390008888833333322222222222222222222888
:1053A000888D0000C4530008000000205801000050
:1053B000F00E0008E8530008580100200009000022
:1053C000F8500008143B490803161027259A9999AC
:1053D0003E0B14803F0401C20D42CDCCCC3DCC32FB
:0853E0000182105324F40000C7
:040000050800018965
:00000001FF
